{
  "contractName": "GenuNFT_STAGE",
  "abi": [
    {
      "inputs": [],
      "stateMutability": "nonpayable",
      "type": "constructor"
    },
    {
      "anonymous": false,
      "inputs": [
        {
          "indexed": true,
          "internalType": "address",
          "name": "owner",
          "type": "address"
        },
        {
          "indexed": true,
          "internalType": "address",
          "name": "approved",
          "type": "address"
        },
        {
          "indexed": true,
          "internalType": "uint256",
          "name": "tokenId",
          "type": "uint256"
        }
      ],
      "name": "Approval",
      "type": "event"
    },
    {
      "anonymous": false,
      "inputs": [
        {
          "indexed": true,
          "internalType": "address",
          "name": "owner",
          "type": "address"
        },
        {
          "indexed": true,
          "internalType": "address",
          "name": "operator",
          "type": "address"
        },
        {
          "indexed": false,
          "internalType": "bool",
          "name": "approved",
          "type": "bool"
        }
      ],
      "name": "ApprovalForAll",
      "type": "event"
    },
    {
      "anonymous": false,
      "inputs": [
        {
          "indexed": true,
          "internalType": "uint256",
          "name": "brandId",
          "type": "uint256"
        },
        {
          "indexed": false,
          "internalType": "address",
          "name": "brandAddress",
          "type": "address"
        }
      ],
      "name": "BrandCreated",
      "type": "event"
    },
    {
      "anonymous": false,
      "inputs": [
        {
          "indexed": true,
          "internalType": "uint256",
          "name": "brandId",
          "type": "uint256"
        },
        {
          "indexed": false,
          "internalType": "address",
          "name": "newBrandAddress",
          "type": "address"
        }
      ],
      "name": "BrandModified",
      "type": "event"
    },
    {
      "anonymous": false,
      "inputs": [
        {
          "indexed": false,
          "internalType": "uint256",
          "name": "newETHFees",
          "type": "uint256"
        }
      ],
      "name": "CreationFeesUpdated",
      "type": "event"
    },
    {
      "anonymous": false,
      "inputs": [
        {
          "indexed": false,
          "internalType": "uint256",
          "name": "withdrawnBalanceETH",
          "type": "uint256"
        },
        {
          "indexed": false,
          "internalType": "address",
          "name": "toAddress",
          "type": "address"
        }
      ],
      "name": "FeeHasBeenWithdrawn",
      "type": "event"
    },
    {
      "anonymous": false,
      "inputs": [
        {
          "indexed": true,
          "internalType": "address",
          "name": "previousOwner",
          "type": "address"
        },
        {
          "indexed": true,
          "internalType": "address",
          "name": "newOwner",
          "type": "address"
        }
      ],
      "name": "OwnershipTransferred",
      "type": "event"
    },
    {
      "anonymous": false,
      "inputs": [
        {
          "indexed": false,
          "internalType": "address",
          "name": "account",
          "type": "address"
        }
      ],
      "name": "Paused",
      "type": "event"
    },
    {
      "anonymous": false,
      "inputs": [
        {
          "indexed": true,
          "internalType": "uint256",
          "name": "tokenId",
          "type": "uint256"
        },
        {
          "indexed": false,
          "internalType": "address",
          "name": "creatorAddress",
          "type": "address"
        },
        {
          "indexed": false,
          "internalType": "string",
          "name": "nfcSerialNumber",
          "type": "string"
        }
      ],
      "name": "TokenCreated",
      "type": "event"
    },
    {
      "anonymous": false,
      "inputs": [
        {
          "indexed": true,
          "internalType": "uint256",
          "name": "tokenId",
          "type": "uint256"
        },
        {
          "indexed": false,
          "internalType": "address",
          "name": "updatingAddress",
          "type": "address"
        }
      ],
      "name": "TokenInfoUpdated",
      "type": "event"
    },
    {
      "anonymous": false,
      "inputs": [
        {
          "indexed": true,
          "internalType": "uint256",
          "name": "tokenId",
          "type": "uint256"
        },
        {
          "indexed": false,
          "internalType": "address",
          "name": "fromAddress",
          "type": "address"
        },
        {
          "indexed": false,
          "internalType": "address",
          "name": "toAddress",
          "type": "address"
        }
      ],
      "name": "TokenOwnershipTransfered",
      "type": "event"
    },
    {
      "anonymous": false,
      "inputs": [
        {
          "indexed": true,
          "internalType": "uint256",
          "name": "tokenId",
          "type": "uint256"
        },
        {
          "indexed": false,
          "internalType": "address",
          "name": "tokenOwner",
          "type": "address"
        },
        {
          "indexed": false,
          "internalType": "bool",
          "name": "disabled",
          "type": "bool"
        }
      ],
      "name": "TokenTransferUpdated",
      "type": "event"
    },
    {
      "anonymous": false,
      "inputs": [
        {
          "indexed": true,
          "internalType": "uint256",
          "name": "tokenId",
          "type": "uint256"
        },
        {
          "indexed": false,
          "internalType": "address",
          "name": "from",
          "type": "address"
        },
        {
          "indexed": false,
          "internalType": "address",
          "name": "to",
          "type": "address"
        }
      ],
      "name": "TokenTransfered",
      "type": "event"
    },
    {
      "anonymous": false,
      "inputs": [
        {
          "indexed": true,
          "internalType": "uint256",
          "name": "tokenId",
          "type": "uint256"
        },
        {
          "components": [
            {
              "internalType": "uint256",
              "name": "timestamp",
              "type": "uint256"
            },
            {
              "internalType": "string",
              "name": "eventCode",
              "type": "string"
            },
            {
              "internalType": "string",
              "name": "eventDescription",
              "type": "string"
            },
            {
              "internalType": "string",
              "name": "location",
              "type": "string"
            },
            {
              "internalType": "string",
              "name": "locationName",
              "type": "string"
            },
            {
              "internalType": "string",
              "name": "publicData1",
              "type": "string"
            },
            {
              "internalType": "string",
              "name": "publicData2",
              "type": "string"
            }
          ],
          "indexed": false,
          "internalType": "struct GenuNFT_STAGE.TrackingStep",
          "name": "newStep",
          "type": "tuple"
        }
      ],
      "name": "TrackingStepAdded",
      "type": "event"
    },
    {
      "anonymous": false,
      "inputs": [
        {
          "indexed": true,
          "internalType": "address",
          "name": "from",
          "type": "address"
        },
        {
          "indexed": true,
          "internalType": "address",
          "name": "to",
          "type": "address"
        },
        {
          "indexed": true,
          "internalType": "uint256",
          "name": "tokenId",
          "type": "uint256"
        }
      ],
      "name": "Transfer",
      "type": "event"
    },
    {
      "anonymous": false,
      "inputs": [
        {
          "indexed": false,
          "internalType": "uint256",
          "name": "newETHFees",
          "type": "uint256"
        }
      ],
      "name": "TransferFeesUpdated",
      "type": "event"
    },
    {
      "anonymous": false,
      "inputs": [
        {
          "indexed": false,
          "internalType": "address",
          "name": "account",
          "type": "address"
        }
      ],
      "name": "Unpaused",
      "type": "event"
    },
    {
      "inputs": [],
      "name": "_owner",
      "outputs": [
        {
          "internalType": "address",
          "name": "",
          "type": "address"
        }
      ],
      "stateMutability": "view",
      "type": "function",
      "constant": true
    },
    {
      "inputs": [],
      "name": "_paused",
      "outputs": [
        {
          "internalType": "bool",
          "name": "",
          "type": "bool"
        }
      ],
      "stateMutability": "view",
      "type": "function",
      "constant": true
    },
    {
      "inputs": [
        {
          "internalType": "address",
          "name": "to",
          "type": "address"
        },
        {
          "internalType": "uint256",
          "name": "tokenId",
          "type": "uint256"
        }
      ],
      "name": "approve",
      "outputs": [],
      "stateMutability": "nonpayable",
      "type": "function"
    },
    {
      "inputs": [
        {
          "internalType": "address",
          "name": "owner",
          "type": "address"
        }
      ],
      "name": "balanceOf",
      "outputs": [
        {
          "internalType": "uint256",
          "name": "",
          "type": "uint256"
        }
      ],
      "stateMutability": "view",
      "type": "function",
      "constant": true
    },
    {
      "inputs": [
        {
          "internalType": "uint256",
          "name": "tokenId",
          "type": "uint256"
        }
      ],
      "name": "getApproved",
      "outputs": [
        {
          "internalType": "address",
          "name": "",
          "type": "address"
        }
      ],
      "stateMutability": "view",
      "type": "function",
      "constant": true
    },
    {
      "inputs": [],
      "name": "getBaseTokenURI",
      "outputs": [
        {
          "internalType": "string",
          "name": "",
          "type": "string"
        }
      ],
      "stateMutability": "view",
      "type": "function",
      "constant": true
    },
    {
      "inputs": [
        {
          "internalType": "address",
          "name": "owner",
          "type": "address"
        },
        {
          "internalType": "address",
          "name": "operator",
          "type": "address"
        }
      ],
      "name": "isApprovedForAll",
      "outputs": [
        {
          "internalType": "bool",
          "name": "",
          "type": "bool"
        }
      ],
      "stateMutability": "view",
      "type": "function",
      "constant": true
    },
    {
      "inputs": [],
      "name": "isOwner",
      "outputs": [
        {
          "internalType": "bool",
          "name": "",
          "type": "bool"
        }
      ],
      "stateMutability": "view",
      "type": "function",
      "constant": true
    },
    {
      "inputs": [],
      "name": "name",
      "outputs": [
        {
          "internalType": "string",
          "name": "",
          "type": "string"
        }
      ],
      "stateMutability": "view",
      "type": "function",
      "constant": true
    },
    {
      "inputs": [],
      "name": "owner",
      "outputs": [
        {
          "internalType": "address",
          "name": "",
          "type": "address"
        }
      ],
      "stateMutability": "view",
      "type": "function",
      "constant": true
    },
    {
      "inputs": [
        {
          "internalType": "uint256",
          "name": "tokenId",
          "type": "uint256"
        }
      ],
      "name": "ownerOf",
      "outputs": [
        {
          "internalType": "address",
          "name": "",
          "type": "address"
        }
      ],
      "stateMutability": "view",
      "type": "function",
      "constant": true
    },
    {
      "inputs": [],
      "name": "pause",
      "outputs": [],
      "stateMutability": "nonpayable",
      "type": "function"
    },
    {
      "inputs": [],
      "name": "paused",
      "outputs": [
        {
          "internalType": "bool",
          "name": "",
          "type": "bool"
        }
      ],
      "stateMutability": "view",
      "type": "function",
      "constant": true
    },
    {
      "inputs": [
        {
          "internalType": "address",
          "name": "from",
          "type": "address"
        },
        {
          "internalType": "address",
          "name": "to",
          "type": "address"
        },
        {
          "internalType": "uint256",
          "name": "tokenId",
          "type": "uint256"
        }
      ],
      "name": "safeTransferFrom",
      "outputs": [],
      "stateMutability": "payable",
      "type": "function",
      "payable": true
    },
    {
      "inputs": [
        {
          "internalType": "address",
          "name": "from",
          "type": "address"
        },
        {
          "internalType": "address",
          "name": "to",
          "type": "address"
        },
        {
          "internalType": "uint256",
          "name": "tokenId",
          "type": "uint256"
        },
        {
          "internalType": "bytes",
          "name": "_data",
          "type": "bytes"
        }
      ],
      "name": "safeTransferFrom",
      "outputs": [],
      "stateMutability": "payable",
      "type": "function",
      "payable": true
    },
    {
      "inputs": [
        {
          "internalType": "address",
          "name": "to",
          "type": "address"
        },
        {
          "internalType": "bool",
          "name": "approved",
          "type": "bool"
        }
      ],
      "name": "setApprovalForAll",
      "outputs": [],
      "stateMutability": "nonpayable",
      "type": "function"
    },
    {
      "inputs": [
        {
          "internalType": "bytes4",
          "name": "interfaceId",
          "type": "bytes4"
        }
      ],
      "name": "supportsInterface",
      "outputs": [
        {
          "internalType": "bool",
          "name": "",
          "type": "bool"
        }
      ],
      "stateMutability": "view",
      "type": "function",
      "constant": true
    },
    {
      "inputs": [],
      "name": "symbol",
      "outputs": [
        {
          "internalType": "string",
          "name": "",
          "type": "string"
        }
      ],
      "stateMutability": "view",
      "type": "function",
      "constant": true
    },
    {
      "inputs": [
        {
          "internalType": "uint256",
          "name": "index",
          "type": "uint256"
        }
      ],
      "name": "tokenByIndex",
      "outputs": [
        {
          "internalType": "uint256",
          "name": "",
          "type": "uint256"
        }
      ],
      "stateMutability": "view",
      "type": "function",
      "constant": true
    },
    {
      "inputs": [
        {
          "internalType": "address",
          "name": "owner",
          "type": "address"
        },
        {
          "internalType": "uint256",
          "name": "index",
          "type": "uint256"
        }
      ],
      "name": "tokenOfOwnerByIndex",
      "outputs": [
        {
          "internalType": "uint256",
          "name": "",
          "type": "uint256"
        }
      ],
      "stateMutability": "view",
      "type": "function",
      "constant": true
    },
    {
      "inputs": [
        {
          "internalType": "uint256",
          "name": "tokenId",
          "type": "uint256"
        }
      ],
      "name": "tokenURI",
      "outputs": [
        {
          "internalType": "string",
          "name": "",
          "type": "string"
        }
      ],
      "stateMutability": "view",
      "type": "function",
      "constant": true
    },
    {
      "inputs": [
        {
          "internalType": "address",
          "name": "owner",
          "type": "address"
        }
      ],
      "name": "tokensOfOwner",
      "outputs": [
        {
          "internalType": "uint256[]",
          "name": "",
          "type": "uint256[]"
        }
      ],
      "stateMutability": "view",
      "type": "function",
      "constant": true
    },
    {
      "inputs": [],
      "name": "totalSupply",
      "outputs": [
        {
          "internalType": "uint256",
          "name": "",
          "type": "uint256"
        }
      ],
      "stateMutability": "view",
      "type": "function",
      "constant": true
    },
    {
      "inputs": [],
      "name": "unpause",
      "outputs": [],
      "stateMutability": "nonpayable",
      "type": "function"
    },
    {
      "inputs": [
        {
          "internalType": "uint256",
          "name": "newFee",
          "type": "uint256"
        }
      ],
      "name": "updateTransferFee",
      "outputs": [],
      "stateMutability": "nonpayable",
      "type": "function"
    },
    {
      "inputs": [
        {
          "internalType": "uint256",
          "name": "newFeeETH",
          "type": "uint256"
        }
      ],
      "name": "updateCreationFee",
      "outputs": [],
      "stateMutability": "nonpayable",
      "type": "function"
    },
    {
      "inputs": [],
      "name": "withdrawFees",
      "outputs": [],
      "stateMutability": "nonpayable",
      "type": "function"
    },
    {
      "inputs": [
        {
          "internalType": "address",
          "name": "newOwner",
          "type": "address"
        }
      ],
      "name": "transferOwnership",
      "outputs": [],
      "stateMutability": "nonpayable",
      "type": "function"
    },
    {
      "inputs": [
        {
          "components": [
            {
              "internalType": "uint256",
              "name": "creationDate",
              "type": "uint256"
            },
            {
              "internalType": "string",
              "name": "nfcSerialNumber",
              "type": "string"
            },
            {
              "internalType": "string",
              "name": "rfidSerialNumber",
              "type": "string"
            },
            {
              "internalType": "string",
              "name": "patchId",
              "type": "string"
            }
          ],
          "internalType": "struct GenuNFT_STAGE.NftData",
          "name": "tokenData",
          "type": "tuple"
        }
      ],
      "name": "createToken",
      "outputs": [],
      "stateMutability": "payable",
      "type": "function",
      "payable": true
    },
    {
      "inputs": [
        {
          "components": [
            {
              "internalType": "uint256",
              "name": "creationDate",
              "type": "uint256"
            },
            {
              "internalType": "string",
              "name": "nfcSerialNumber",
              "type": "string"
            },
            {
              "internalType": "string",
              "name": "rfidSerialNumber",
              "type": "string"
            },
            {
              "internalType": "string",
              "name": "patchId",
              "type": "string"
            }
          ],
          "internalType": "struct GenuNFT_STAGE.NftData[]",
          "name": "tokensData",
          "type": "tuple[]"
        }
      ],
      "name": "createTokensInBatch",
      "outputs": [],
      "stateMutability": "payable",
      "type": "function",
      "payable": true
    },
    {
      "inputs": [
        {
          "components": [
            {
              "internalType": "uint256",
              "name": "creationDate",
              "type": "uint256"
            },
            {
              "internalType": "string",
              "name": "nfcSerialNumber",
              "type": "string"
            },
            {
              "internalType": "string",
              "name": "rfidSerialNumber",
              "type": "string"
            },
            {
              "internalType": "string",
              "name": "patchId",
              "type": "string"
            }
          ],
          "internalType": "struct GenuNFT_STAGE.NftData",
          "name": "tokenData",
          "type": "tuple"
        },
        {
          "components": [
            {
              "internalType": "uint256",
              "name": "timestamp",
              "type": "uint256"
            },
            {
              "internalType": "string",
              "name": "eventCode",
              "type": "string"
            },
            {
              "internalType": "string",
              "name": "eventDescription",
              "type": "string"
            },
            {
              "internalType": "string",
              "name": "location",
              "type": "string"
            },
            {
              "internalType": "string",
              "name": "locationName",
              "type": "string"
            },
            {
              "internalType": "string",
              "name": "publicData1",
              "type": "string"
            },
            {
              "internalType": "string",
              "name": "publicData2",
              "type": "string"
            }
          ],
          "internalType": "struct GenuNFT_STAGE.TrackingStep",
          "name": "newStep",
          "type": "tuple"
        }
      ],
      "name": "createTokenWithStep",
      "outputs": [],
      "stateMutability": "payable",
      "type": "function",
      "payable": true
    },
    {
      "inputs": [
        {
          "internalType": "address",
          "name": "from",
          "type": "address"
        },
        {
          "internalType": "address",
          "name": "to",
          "type": "address"
        },
        {
          "internalType": "uint256",
          "name": "tokenId",
          "type": "uint256"
        }
      ],
      "name": "transferFrom",
      "outputs": [],
      "stateMutability": "payable",
      "type": "function",
      "payable": true
    },
    {
      "inputs": [
        {
          "internalType": "uint256",
          "name": "tokenId",
          "type": "uint256"
        },
        {
          "components": [
            {
              "internalType": "uint256",
              "name": "creationDate",
              "type": "uint256"
            },
            {
              "internalType": "string",
              "name": "nfcSerialNumber",
              "type": "string"
            },
            {
              "internalType": "string",
              "name": "rfidSerialNumber",
              "type": "string"
            },
            {
              "internalType": "string",
              "name": "patchId",
              "type": "string"
            }
          ],
          "internalType": "struct GenuNFT_STAGE.NftData",
          "name": "tokenData",
          "type": "tuple"
        }
      ],
      "name": "updateItemInfo",
      "outputs": [],
      "stateMutability": "nonpayable",
      "type": "function"
    },
    {
      "inputs": [
        {
          "internalType": "uint256",
          "name": "tokenId",
          "type": "uint256"
        }
      ],
      "name": "disableTokenTransfer",
      "outputs": [],
      "stateMutability": "nonpayable",
      "type": "function"
    },
    {
      "inputs": [
        {
          "internalType": "uint256",
          "name": "tokenId",
          "type": "uint256"
        }
      ],
      "name": "resumeTokenTransfer",
      "outputs": [],
      "stateMutability": "nonpayable",
      "type": "function"
    },
    {
      "inputs": [
        {
          "internalType": "uint256",
          "name": "tokenId",
          "type": "uint256"
        }
      ],
      "name": "isTrasferable",
      "outputs": [
        {
          "internalType": "bool",
          "name": "",
          "type": "bool"
        }
      ],
      "stateMutability": "view",
      "type": "function",
      "constant": true
    },
    {
      "inputs": [
        {
          "internalType": "string",
          "name": "uri",
          "type": "string"
        }
      ],
      "name": "setBaseTokenURI",
      "outputs": [],
      "stateMutability": "nonpayable",
      "type": "function"
    },
    {
      "inputs": [
        {
          "internalType": "address",
          "name": "newBrandAddress",
          "type": "address"
        }
      ],
      "name": "addBrandAddress",
      "outputs": [
        {
          "internalType": "uint256",
          "name": "",
          "type": "uint256"
        }
      ],
      "stateMutability": "nonpayable",
      "type": "function"
    },
    {
      "inputs": [
        {
          "internalType": "uint256",
          "name": "brandId",
          "type": "uint256"
        }
      ],
      "name": "removeBrandAddress",
      "outputs": [],
      "stateMutability": "nonpayable",
      "type": "function"
    },
    {
      "inputs": [
        {
          "internalType": "uint256",
          "name": "brandId",
          "type": "uint256"
        },
        {
          "internalType": "address",
          "name": "newBrandAddress",
          "type": "address"
        }
      ],
      "name": "updateBrandAddress",
      "outputs": [],
      "stateMutability": "nonpayable",
      "type": "function"
    },
    {
      "inputs": [
        {
          "internalType": "uint256",
          "name": "tokenId",
          "type": "uint256"
        },
        {
          "components": [
            {
              "internalType": "uint256",
              "name": "timestamp",
              "type": "uint256"
            },
            {
              "internalType": "string",
              "name": "eventCode",
              "type": "string"
            },
            {
              "internalType": "string",
              "name": "eventDescription",
              "type": "string"
            },
            {
              "internalType": "string",
              "name": "location",
              "type": "string"
            },
            {
              "internalType": "string",
              "name": "locationName",
              "type": "string"
            },
            {
              "internalType": "string",
              "name": "publicData1",
              "type": "string"
            },
            {
              "internalType": "string",
              "name": "publicData2",
              "type": "string"
            }
          ],
          "internalType": "struct GenuNFT_STAGE.TrackingStep",
          "name": "newStep",
          "type": "tuple"
        }
      ],
      "name": "addTrackingStep",
      "outputs": [],
      "stateMutability": "nonpayable",
      "type": "function"
    },
    {
      "inputs": [
        {
          "internalType": "uint256",
          "name": "tokenId",
          "type": "uint256"
        },
        {
          "components": [
            {
              "internalType": "uint256",
              "name": "timestamp",
              "type": "uint256"
            },
            {
              "internalType": "string",
              "name": "eventCode",
              "type": "string"
            },
            {
              "internalType": "string",
              "name": "eventDescription",
              "type": "string"
            },
            {
              "internalType": "string",
              "name": "location",
              "type": "string"
            },
            {
              "internalType": "string",
              "name": "locationName",
              "type": "string"
            },
            {
              "internalType": "string",
              "name": "publicData1",
              "type": "string"
            },
            {
              "internalType": "string",
              "name": "publicData2",
              "type": "string"
            }
          ],
          "internalType": "struct GenuNFT_STAGE.TrackingStep[]",
          "name": "newSteps",
          "type": "tuple[]"
        }
      ],
      "name": "addTrackingStepsInBatch",
      "outputs": [],
      "stateMutability": "nonpayable",
      "type": "function"
    },
    {
      "inputs": [
        {
          "internalType": "uint256",
          "name": "tokenId",
          "type": "uint256"
        },
        {
          "internalType": "string",
          "name": "location",
          "type": "string"
        },
        {
          "internalType": "string",
          "name": "locationName",
          "type": "string"
        },
        {
          "internalType": "string",
          "name": "publicData",
          "type": "string"
        }
      ],
      "name": "updateItemLocation",
      "outputs": [],
      "stateMutability": "nonpayable",
      "type": "function"
    },
    {
      "inputs": [],
      "name": "getCreationFee",
      "outputs": [
        {
          "internalType": "uint256",
          "name": "",
          "type": "uint256"
        }
      ],
      "stateMutability": "view",
      "type": "function",
      "constant": true
    },
    {
      "inputs": [],
      "name": "getTransferFee",
      "outputs": [
        {
          "internalType": "uint256",
          "name": "",
          "type": "uint256"
        }
      ],
      "stateMutability": "view",
      "type": "function",
      "constant": true
    },
    {
      "inputs": [
        {
          "internalType": "uint256",
          "name": "brandId",
          "type": "uint256"
        }
      ],
      "name": "getTokensCreatedBy",
      "outputs": [
        {
          "internalType": "uint256[]",
          "name": "",
          "type": "uint256[]"
        }
      ],
      "stateMutability": "view",
      "type": "function",
      "constant": true
    },
    {
      "inputs": [],
      "name": "getAllTokenData",
      "outputs": [
        {
          "components": [
            {
              "internalType": "uint256",
              "name": "creationDate",
              "type": "uint256"
            },
            {
              "internalType": "string",
              "name": "nfcSerialNumber",
              "type": "string"
            },
            {
              "internalType": "string",
              "name": "rfidSerialNumber",
              "type": "string"
            },
            {
              "internalType": "string",
              "name": "patchId",
              "type": "string"
            }
          ],
          "internalType": "struct GenuNFT_STAGE.NftData[]",
          "name": "",
          "type": "tuple[]"
        }
      ],
      "stateMutability": "view",
      "type": "function",
      "constant": true
    },
    {
      "inputs": [
        {
          "internalType": "uint256",
          "name": "tokenId",
          "type": "uint256"
        }
      ],
      "name": "getTokenById",
      "outputs": [
        {
          "components": [
            {
              "internalType": "uint256",
              "name": "creationDate",
              "type": "uint256"
            },
            {
              "internalType": "string",
              "name": "nfcSerialNumber",
              "type": "string"
            },
            {
              "internalType": "string",
              "name": "rfidSerialNumber",
              "type": "string"
            },
            {
              "internalType": "string",
              "name": "patchId",
              "type": "string"
            }
          ],
          "internalType": "struct GenuNFT_STAGE.NftData",
          "name": "",
          "type": "tuple"
        }
      ],
      "stateMutability": "view",
      "type": "function",
      "constant": true
    },
    {
      "inputs": [
        {
          "internalType": "uint256",
          "name": "tokenId",
          "type": "uint256"
        }
      ],
      "name": "getTokenTrackingStepById",
      "outputs": [
        {
          "components": [
            {
              "internalType": "uint256",
              "name": "timestamp",
              "type": "uint256"
            },
            {
              "internalType": "string",
              "name": "eventCode",
              "type": "string"
            },
            {
              "internalType": "string",
              "name": "eventDescription",
              "type": "string"
            },
            {
              "internalType": "string",
              "name": "location",
              "type": "string"
            },
            {
              "internalType": "string",
              "name": "locationName",
              "type": "string"
            },
            {
              "internalType": "string",
              "name": "publicData1",
              "type": "string"
            },
            {
              "internalType": "string",
              "name": "publicData2",
              "type": "string"
            }
          ],
          "internalType": "struct GenuNFT_STAGE.TrackingStep[]",
          "name": "",
          "type": "tuple[]"
        }
      ],
      "stateMutability": "view",
      "type": "function",
      "constant": true
    },
    {
      "inputs": [],
      "name": "getBrandsNumber",
      "outputs": [
        {
          "internalType": "uint256",
          "name": "",
          "type": "uint256"
        }
      ],
      "stateMutability": "view",
      "type": "function",
      "constant": true
    },
    {
      "inputs": [
        {
          "internalType": "uint256",
          "name": "brandId",
          "type": "uint256"
        }
      ],
      "name": "getBrandAddress",
      "outputs": [
        {
          "internalType": "address",
          "name": "",
          "type": "address"
        }
      ],
      "stateMutability": "view",
      "type": "function",
      "constant": true
    },
    {
      "inputs": [],
      "name": "getAllBrands",
      "outputs": [
        {
          "internalType": "address[]",
          "name": "",
          "type": "address[]"
        }
      ],
      "stateMutability": "view",
      "type": "function",
      "constant": true
    },
    {
      "inputs": [
        {
          "internalType": "string",
          "name": "nfcSerialNumber",
          "type": "string"
        }
      ],
      "name": "getTokenByNfc",
      "outputs": [
        {
          "components": [
            {
              "internalType": "uint256",
              "name": "creationDate",
              "type": "uint256"
            },
            {
              "internalType": "string",
              "name": "nfcSerialNumber",
              "type": "string"
            },
            {
              "internalType": "string",
              "name": "rfidSerialNumber",
              "type": "string"
            },
            {
              "internalType": "string",
              "name": "patchId",
              "type": "string"
            }
          ],
          "internalType": "struct GenuNFT_STAGE.NftData",
          "name": "",
          "type": "tuple"
        },
        {
          "internalType": "uint256",
          "name": "",
          "type": "uint256"
        }
      ],
      "stateMutability": "view",
      "type": "function",
      "constant": true
    },
    {
      "inputs": [
        {
          "internalType": "string",
          "name": "rfidSerialNumber",
          "type": "string"
        }
      ],
      "name": "getTokenByRfid",
      "outputs": [
        {
          "components": [
            {
              "internalType": "uint256",
              "name": "creationDate",
              "type": "uint256"
            },
            {
              "internalType": "string",
              "name": "nfcSerialNumber",
              "type": "string"
            },
            {
              "internalType": "string",
              "name": "rfidSerialNumber",
              "type": "string"
            },
            {
              "internalType": "string",
              "name": "patchId",
              "type": "string"
            }
          ],
          "internalType": "struct GenuNFT_STAGE.NftData",
          "name": "",
          "type": "tuple"
        },
        {
          "internalType": "uint256",
          "name": "",
          "type": "uint256"
        }
      ],
      "stateMutability": "view",
      "type": "function",
      "constant": true
    },
    {
      "inputs": [
        {
          "internalType": "string",
          "name": "patchId",
          "type": "string"
        }
      ],
      "name": "getTokenByPatchId",
      "outputs": [
        {
          "components": [
            {
              "internalType": "uint256",
              "name": "creationDate",
              "type": "uint256"
            },
            {
              "internalType": "string",
              "name": "nfcSerialNumber",
              "type": "string"
            },
            {
              "internalType": "string",
              "name": "rfidSerialNumber",
              "type": "string"
            },
            {
              "internalType": "string",
              "name": "patchId",
              "type": "string"
            }
          ],
          "internalType": "struct GenuNFT_STAGE.NftData",
          "name": "",
          "type": "tuple"
        },
        {
          "internalType": "uint256",
          "name": "",
          "type": "uint256"
        }
      ],
      "stateMutability": "view",
      "type": "function",
      "constant": true
    },
    {
      "inputs": [],
      "name": "getTimestamp",
      "outputs": [
        {
          "internalType": "uint256",
          "name": "",
          "type": "uint256"
        }
      ],
      "stateMutability": "view",
      "type": "function",
      "constant": true
    }
  ],
  "bytecode": "0x608060405260006017553480156200001657600080fd5b50604080518082018252600d81527f47656e754e46545f5354414745000000000000000000000000000000000000006020808301919091528251808401909352600683527f474e46545f53000000000000000000000000000000000000000000000000000090830152908181620000ad7f01ffc9a700000000000000000000000000000000000000000000000000000000620001c4565b620000d87f80ac58cd00000000000000000000000000000000000000000000000000000000620001c4565b620001037f780e9d6300000000000000000000000000000000000000000000000000000000620001c4565b81516200011890600990602085019062000380565b5080516200012e90600a90602084019062000380565b506200015a7f5b5e139f00000000000000000000000000000000000000000000000000000000620001c4565b5050600d8054336001600160a01b03199091161760ff60a01b1981169091556040516001600160a01b039091169250600091507f8be0079c531659141344cd1fd0a4f28419497f9722a3daafe3b4186f6b6457e0908290a3620001bd3362000269565b50620004d4565b7fffffffff0000000000000000000000000000000000000000000000000000000080821614156200022c576040517f08c379a0000000000000000000000000000000000000000000000000000000008152600401620002239062000440565b60405180910390fd5b7fffffffff00000000000000000000000000000000000000000000000000000000166000908152602081905260409020805460ff19166001179055565b60006200027562000366565b6001600160a01b03821660009081526014602052604090205460ff1615620002cb576040517f08c379a0000000000000000000000000000000000000000000000000000000008152600401620002239062000477565b601780546001908101808355600090815260156020908152604080832080546001600160a01b0319166001600160a01b038916908117909155835260148252808320805460ff191690941790935592546016909352819020829055517f03a461548157491fac3596d7638b3d70101be648e61385dab7d3c19fa503e43c90620003569085906200042c565b60405180910390a2505060175490565b600d546001600160a01b031633146200037e57600080fd5b565b828054600181600116156101000203166002900490600052602060002090601f016020900481019282620003b8576000855562000403565b82601f10620003d357805160ff191683800117855562000403565b8280016001018555821562000403579182015b8281111562000403578251825591602001919060010190620003e6565b506200041192915062000415565b5090565b5b8082111562000411576000815560010162000416565b6001600160a01b0391909116815260200190565b6020808252601c908201527f4552433136353a20696e76616c696420696e7465726661636520696400000000604082015260600190565b60208082526029908201527f41206272616e6420776974682074686973206164647265737320616c7265616460408201527f79206578697374732e0000000000000000000000000000000000000000000000606082015260800190565b61492780620004e46000396000f3fe60806040526004361061027b5760003560e01c806301ffc9a71461028057806306fdde03146102b65780630707fafc146102d8578063081812fc14610305578063095ea7b31461033257806309670ae7146103545780630cfa23b614610374578063100027011461039457806316c61ccc146103c257806318160ddd146103d7578063188ec356146103f957806323b872dd1461040e5780632b370199146104215780632f745c591461044157806330176e1314610461578063323eee6e146104815780633bd9a309146104a15780633f4ba83a146104c157806342842e0e146104d6578063436116cb146104e9578063476343ee146104fe5780634907c36a146105135780634de9e6a8146105335780634f6ccce71461056057806356521068146105805780635c975abb146105a05780635e74e602146105b557806360e8ddb0146105d55780636352211e146105f75780636ed54961146106175780636fa237951461063757806370a082311461065757806374e2df39146106775780637bdc60d9146106975780637edec16e146106c457806382e70bc6146106e4578063836bac5c146107045780638456cb59146107175780638462151c1461072c5780638577a6d51461074c5780638da5cb5b1461076c5780638f32d59b1461078157806395d89b41146107965780639a17d8c1146107ab5780639ebeef59146107c0578063a22cb465146107e2578063a72e93f214610802578063ab94314414610815578063b2bdfa7b14610835578063b88d4fde1461084a578063bdc32be01461085d578063c87b56dd14610872578063db07b68e14610892578063e0b9d5d3146108a7578063e985e9c5146108ba578063f2fde38b146108da575b600080fd5b34801561028c57600080fd5b506102a061029b3660046139ae565b6108fa565b6040516102ad9190614011565b60405180910390f35b3480156102c257600080fd5b506102cb61091d565b6040516102ad919061401c565b3480156102e457600080fd5b506102f86102f3366004613aaa565b6109b3565b6040516102ad9190613fd9565b34801561031157600080fd5b50610325610320366004613aaa565b610a15565b6040516102ad9190613e2f565b34801561033e57600080fd5b5061035261034d3660046138f8565b610a61565b005b34801561036057600080fd5b5061035261036f366004613b76565b610b34565b34801561038057600080fd5b5061035261038f366004613bf7565b610cca565b3480156103a057600080fd5b506103b46103af3660046139e6565b610d95565b6040516102ad929190614744565b3480156103ce57600080fd5b506102a0610fc7565b3480156103e357600080fd5b506103ec610fd7565b6040516102ad9190614779565b34801561040557600080fd5b506103ec610fdd565b61035261041c36600461381e565b610fe1565b34801561042d57600080fd5b5061035261043c366004613ac2565b6110bb565b34801561044d57600080fd5b506103ec61045c3660046138f8565b6110d1565b34801561046d57600080fd5b5061035261047c3660046139e6565b611131565b34801561048d57600080fd5b5061035261049c366004613ae4565b611145565b3480156104ad57600080fd5b506103526104bc366004613aaa565b61118c565b3480156104cd57600080fd5b506103526111dd565b6103526104e436600461381e565b611271565b3480156104f557600080fd5b506103ec61128c565b34801561050a57600080fd5b50610352611292565b34801561051f57600080fd5b5061032561052e366004613aaa565b611307565b34801561053f57600080fd5b5061055361054e366004613aaa565b611322565b6040516102ad9190613f86565b34801561056c57600080fd5b506103ec61057b366004613aaa565b61173d565b34801561058c57600080fd5b506103b461059b3660046139e6565b611784565b3480156105ac57600080fd5b506102a061179f565b3480156105c157600080fd5b506103526105d0366004613aaa565b6117af565b3480156105e157600080fd5b506105ea6117fd565b6040516102ad9190613ed9565b34801561060357600080fd5b50610325610612366004613aaa565b6118a3565b34801561062357600080fd5b506103b46106323660046139e6565b6118de565b34801561064357600080fd5b50610352610652366004613aaa565b6118f9565b34801561066357600080fd5b506103ec6106723660046137cb565b611936565b34801561068357600080fd5b50610352610692366004613c31565b61197f565b3480156106a357600080fd5b506106b76106b2366004613aaa565b611a7f565b6040516102ad9190614731565b3480156106d057600080fd5b506103526106df366004613aaa565b611cab565b3480156106f057600080fd5b506103ec6106ff3660046137cb565b611cdf565b610352610712366004613921565b611dbb565b34801561072357600080fd5b50610352611dfb565b34801561073857600080fd5b506102f86107473660046137cb565b611e8c565b34801561075857600080fd5b50610352610767366004613aaa565b611e97565b34801561077857600080fd5b50610325611ed4565b34801561078d57600080fd5b506102a0611ee3565b3480156107a257600080fd5b506102cb611ef4565b3480156107b757600080fd5b506103ec611f55565b3480156107cc57600080fd5b506107d5611f5b565b6040516102ad9190613f26565b3480156107ee57600080fd5b506103526107fd3660046138be565b61218c565b610352610810366004613a18565b612224565b34801561082157600080fd5b506102a0610830366004613aaa565b612418565b34801561084157600080fd5b5061032561242e565b610352610858366004613859565b61243d565b34801561086957600080fd5b506102cb612476565b34801561087e57600080fd5b506102cb61088d366004613aaa565b6124d7565b34801561089e57600080fd5b506103ec61250b565b6103526108b5366004613a4a565b612511565b3480156108c657600080fd5b506102a06108d53660046137ec565b612539565b3480156108e657600080fd5b506103526108f53660046137cb565b612567565b6001600160e01b0319811660009081526020819052604090205460ff165b919050565b60098054604080516020601f60026000196101006001881615020190951694909404938401819004810282018101909252828152606093909290918301828280156109a95780601f1061097e576101008083540402835291602001916109a9565b820191906000526020600020905b81548152906001019060200180831161098c57829003601f168201915b5050505050905090565b600081815260136020908152604091829020805483518184028101840190945280845260609392830182828015610a0957602002820191906000526020600020905b8154815260200190600101908083116109f5575b50505050509050919050565b6000610a2082612583565b610a455760405162461bcd60e51b8152600401610a3c90614422565b60405180910390fd5b506000908152600260205260409020546001600160a01b031690565b6000610a6c826118a3565b9050806001600160a01b0316836001600160a01b03161415610aa05760405162461bcd60e51b8152600401610a3c906145d5565b336001600160a01b0382161480610abc5750610abc8133612539565b610ad85760405162461bcd60e51b8152600401610a3c9061429a565b60008281526002602052604080822080546001600160a01b0319166001600160a01b0387811691821790925591518593918516917f8c5be1e5ebec7d5bd14f71427d1e84f3dd0314c0f7b2291e5b200ac8c7c3b92591a4505050565b610b3c6125a0565b610b45846125b9565b610b4d61349d565b6040518060e00160405280610b60610fdd565b81526020016040518060400160405280600381526020016215525360ea1b81525081526020016040518060600160405280603981526020016148b960399139815260208082018790526040808301879052805180830182526000808252606085019190915260809093018690528883526010825282208054600181810183559184529282902084516007909402019283558382015180519495508594610c0e939285019291909101906134da565b5060408201518051610c2a9160028401916020909101906134da565b5060608201518051610c469160038401916020909101906134da565b5060808201518051610c629160048401916020909101906134da565b5060a08201518051610c7e9160058401916020909101906134da565b5060c08201518051610c9a9160068401916020909101906134da565b5050508460008051602061485983398151915282604051610cbb9190614766565b60405180910390a25050505050565b610cd26125a0565b610cdb826125df565b8060118381548110610ce957fe5b9060005260206000209060040201600082015181600001556020820151816001019080519060200190610d1d9291906134da565b5060408201518051610d399160028401916020909101906134da565b5060608201518051610d559160038401916020909101906134da565b50905050817fe6e29d09450dc7c61c8803efcd5ccc1b2ff1a25630fe9b4b75b54ab8de95002233604051610d899190613e2f565b60405180910390a25050565b610d9d613566565b600080601984604051610db09190613d92565b908152602001604051809103902054905060118181548110610dce57fe5b9060005260206000209060040201818160405180608001604052908160008201548152602001600182018054600181600116156101000203166002900480601f016020809104026020016040519081016040528092919081815260200182805460018160011615610100020316600290048015610e8c5780601f10610e6157610100808354040283529160200191610e8c565b820191906000526020600020905b815481529060010190602001808311610e6f57829003601f168201915b5050509183525050600282810180546040805160206001841615610100026000190190931694909404601f81018390048302850183019091528084529381019390830182828015610f1e5780601f10610ef357610100808354040283529160200191610f1e565b820191906000526020600020905b815481529060010190602001808311610f0157829003601f168201915b505050918352505060038201805460408051602060026001851615610100026000190190941693909304601f8101849004840282018401909252818152938201939291830182828015610fb25780601f10610f8757610100808354040283529160200191610fb2565b820191906000526020600020905b815481529060010190602001808311610f9557829003601f168201915b50505050508152505091509250925050915091565b600d54600160a01b900460ff1681565b60075490565b4290565b610fe96125a0565b610ff2816125b9565b60008181526018602052604090205460ff16156110215760405162461bcd60e51b8152600401610a3c906143ba565b61102b3382612660565b6110475760405162461bcd60e51b8152600401610a3c90614616565b600e5434146110685760405162461bcd60e51b8152600401610a3c9061446e565b611071816126e5565b61107c338383612c8b565b807f9763b4b2046e09f2a86d6c7cb4220db71ee660cb3d4e9e3fa3b0b51c95cddffa84846040516110ae929190613ebf565b60405180910390a2505050565b6110c3612c96565b6110cd8282612cad565b5050565b60006110dc83611936565b82106110fa5760405162461bcd60e51b8152600401610a3c9061405d565b6001600160a01b038316600090815260056020526040902080548390811061111e57fe5b9060005260206000200154905092915050565b611139612c96565b61114281612d97565b50565b61114d6125a0565b611156826125df565b60005b81518110156111875761117f8383838151811061117257fe5b6020026020010151612daa565b600101611159565b505050565b6111946125a0565b61119d816125b9565b600081815260186020526040808220805460ff19169055518291600080516020614879833981519152916111d2913391613e80565b60405180910390a250565b6111e5611ee3565b6112015760405162461bcd60e51b8152600401610a3c906144bc565b600d54600160a01b900460ff1661122a5760405162461bcd60e51b8152600401610a3c9061402f565b600d805460ff60a01b191690556040517f5db9ee0a495bf2e6ff9c91a7834c1ba4fdd244a5e8aa4e537bd38aeae4b073aa90611267903390613e2f565b60405180910390a1565b6111878383836040518060200160405280600081525061243d565b60175490565b61129a612c96565b604051303190339082156108fc029083906000818181858888f193505050501580156112ca573d6000803e3d6000fd5b507f42636a2a30b744adbc11b4c1eb2932f92bc968bd0111bddb37e0c09ea2934b1381336040516112fc929190614782565b60405180910390a150565b6000908152601560205260409020546001600160a01b031690565b606061132d82612583565b6113495760405162461bcd60e51b8152600401610a3c90614224565b600082815260106020908152604080832080548251818502810185019093528083529193909284015b8282101561173257838290600052602060002090600702016040518060e001604052908160008201548152602001600182018054600181600116156101000203166002900480601f0160208091040260200160405190810160405280929190818152602001828054600181600116156101000203166002900480156114385780601f1061140d57610100808354040283529160200191611438565b820191906000526020600020905b81548152906001019060200180831161141b57829003601f168201915b5050509183525050600282810180546040805160206001841615610100026000190190931694909404601f810183900483028501830190915280845293810193908301828280156114ca5780601f1061149f576101008083540402835291602001916114ca565b820191906000526020600020905b8154815290600101906020018083116114ad57829003601f168201915b505050918352505060038201805460408051602060026001851615610100026000190190941693909304601f810184900484028201840190925281815293820193929183018282801561155e5780601f106115335761010080835404028352916020019161155e565b820191906000526020600020905b81548152906001019060200180831161154157829003601f168201915b505050918352505060048201805460408051602060026001851615610100026000190190941693909304601f81018490048402820184019092528181529382019392918301828280156115f25780601f106115c7576101008083540402835291602001916115f2565b820191906000526020600020905b8154815290600101906020018083116115d557829003601f168201915b505050918352505060058201805460408051602060026001851615610100026000190190941693909304601f81018490048402820184019092528181529382019392918301828280156116865780601f1061165b57610100808354040283529160200191611686565b820191906000526020600020905b81548152906001019060200180831161166957829003601f168201915b505050918352505060068201805460408051602060026001851615610100026000190190941693909304601f810184900484028201840190925281815293820193929183018282801561171a5780601f106116ef5761010080835404028352916020019161171a565b820191906000526020600020905b8154815290600101906020018083116116fd57829003601f168201915b50505050508152505081526020019060010190611372565b505050509050919050565b6000611747610fd7565b82106117655760405162461bcd60e51b8152600401610a3c90614667565b6007828154811061177257fe5b90600052602060002001549050919050565b61178c613566565b600080601a84604051610db09190613d92565b600d54600160a01b900460ff1690565b6117b76125a0565b6117c0816125b9565b60008181526018602052604090819020805460ff1916600190811790915590518291600080516020614879833981519152916111d2913391613e80565b6060806017546001016001600160401b038111801561181b57600080fd5b50604051908082528060200260200182016040528015611845578160200160208202803683370190505b50905060005b601754811161189d5760008181526015602052604090205482516001600160a01b039091169083908390811061187d57fe5b6001600160a01b039092166020928302919091019091015260010161184b565b50905090565b6000818152600160205260408120546001600160a01b0316806118d85760405162461bcd60e51b8152600401610a3c9061433c565b92915050565b6118e6613566565b600080601b84604051610db09190613d92565b611901612c96565b600f8190556040517f25f6fc0ee7a9ac067d0bbe664bf4c8b751a4bb528781b2dcbcdf3665c6c1a370906112fc908390614779565b60006001600160a01b03821661195e5760405162461bcd60e51b8152600401610a3c906142f2565b6001600160a01b03821660009081526003602052604090206118d890612db4565b6119876125a0565b611990826125df565b600082815260106020908152604082208054600181810183559184529282902084516007909402019283558382015180518594936119d29385019201906134da565b50604082015180516119ee9160028401916020909101906134da565b5060608201518051611a0a9160038401916020909101906134da565b5060808201518051611a269160048401916020909101906134da565b5060a08201518051611a429160058401916020909101906134da565b5060c08201518051611a5e9160068401916020909101906134da565b5050508160008051602061485983398151915282604051610d899190614766565b611a87613566565b611a9082612583565b611aac5760405162461bcd60e51b8152600401610a3c90614224565b60118281548110611ab957fe5b906000526020600020906004020160405180608001604052908160008201548152602001600182018054600181600116156101000203166002900480601f016020809104026020016040519081016040528092919081815260200182805460018160011615610100020316600290048015611b755780601f10611b4a57610100808354040283529160200191611b75565b820191906000526020600020905b815481529060010190602001808311611b5857829003601f168201915b5050509183525050600282810180546040805160206001841615610100026000190190931694909404601f81018390048302850183019091528084529381019390830182828015611c075780601f10611bdc57610100808354040283529160200191611c07565b820191906000526020600020905b815481529060010190602001808311611bea57829003601f168201915b505050918352505060038201805460408051602060026001851615610100026000190190941693909304601f8101849004840282018401909252818152938201939291830182828015611c9b5780601f10611c7057610100808354040283529160200191611c9b565b820191906000526020600020905b815481529060010190602001808311611c7e57829003601f168201915b5050505050815250509050919050565b611cb3612c96565b8060011415611cd45760405162461bcd60e51b8152600401610a3c906146b3565b6111428160006110bb565b6000611ce9612c96565b6001600160a01b03821660009081526014602052604090205460ff1615611d225760405162461bcd60e51b8152600401610a3c906146e8565b601780546001908101808355600090815260156020908152604080832080546001600160a01b0319166001600160a01b038916908117909155835260148252808320805460ff191690941790935592546016909352819020829055517f03a461548157491fac3596d7638b3d70101be648e61385dab7d3c19fa503e43c90611dab908590613e2f565b60405180910390a2505060175490565b611dc36125a0565b611dcb612db8565b60005b81518110156110cd57611df3828281518110611de657fe5b6020026020010151612de9565b600101611dce565b611e03611ee3565b611e1f5760405162461bcd60e51b8152600401610a3c906144bc565b600d54600160a01b900460ff1615611e495760405162461bcd60e51b8152600401610a3c90614270565b600d805460ff60a01b1916600160a01b1790556040517f62e78cea01bee320cd4e420270b5ea74000d11b0c9f74754ebdbfc544b05a25890611267903390613e2f565b60606118d882612df2565b611e9f612c96565b600e8190556040517f12d75ab54519bc3137bf739b5926bf6e8f559cdb278d33ee6b26d1807070515b906112fc908390614779565b600d546001600160a01b031690565b600d546001600160a01b0316331490565b600a8054604080516020601f60026000196101006001881615020190951694909404938401819004810282018101909252828152606093909290918301828280156109a95780601f1061097e576101008083540402835291602001916109a9565b600e5490565b60606011805480602002602001604051908101604052809291908181526020016000905b82821015612183578382906000526020600020906004020160405180608001604052908160008201548152602001600182018054600181600116156101000203166002900480601f0160208091040260200160405190810160405280929190818152602001828054600181600116156101000203166002900480156120455780601f1061201a57610100808354040283529160200191612045565b820191906000526020600020905b81548152906001019060200180831161202857829003601f168201915b5050509183525050600282810180546040805160206001841615610100026000190190931694909404601f810183900483028501830190915280845293810193908301828280156120d75780601f106120ac576101008083540402835291602001916120d7565b820191906000526020600020905b8154815290600101906020018083116120ba57829003601f168201915b505050918352505060038201805460408051602060026001851615610100026000190190941693909304601f810184900484028201840190925281815293820193929183018282801561216b5780601f106121405761010080835404028352916020019161216b565b820191906000526020600020905b81548152906001019060200180831161214e57829003601f168201915b50505050508152505081526020019060010190611f7f565b50505050905090565b6001600160a01b0382163314156121b55760405162461bcd60e51b8152600401610a3c906141ba565b3360008181526004602090815260408083206001600160a01b038716808552925291829020805460ff191685151517905590519091907f17307eab39ab6107e8899845ad3d59bd9653f200f220920489ca2b5937696c3190612218908590614011565b60405180910390a35050565b61222c6125a0565b612234612db8565b600f5434146122555760405162461bcd60e51b8152600401610a3c90614589565b60118054600181018255600091909152815160049091027f31ecc21a745e3968a04e9570e4425bc18fa8019c68028196b546d1669c200c68810191825560208084015180518594936122cd937f31ecc21a745e3968a04e9570e4425bc18fa8019c68028196b546d1669c200c699091019201906134da565b50604082015180516122e99160028401916020909101906134da565b50606082015180516123059160038401916020909101906134da565b5050601c805460018101909155905061231e3382612e5c565b3360009081526016602090815260408083205484845260128352818420819055808452601383528184208054600181018255908552838520018590558484526018835292819020805460ff1916905590840151905183916019916123829190613d92565b90815260200160405180910390208190555081601a84604001516040516123a99190613d92565b90815260200160405180910390208190555081601b84606001516040516123d09190613d92565b908152602001604051809103902081905550817f82a09cc58c9cecf0eb61d8994283ec804165931801f8b77e42dcb3b556c5c5be3385602001516040516110ae929190613e9b565b60009081526018602052604090205460ff161590565b600d546001600160a01b031681565b612448848484610fe1565b61245484848484612e66565b6124705760405162461bcd60e51b8152600401610a3c906140a8565b50505050565b600b8054604080516020601f60026000196101006001881615020190951694909404938401819004810282018101909252828152606093909290918301828280156109a95780601f1061097e576101008083540402835291602001916109a9565b6060600b6124e483612f2b565b6040516020016124f5929190613dae565b6040516020818303038152906040529050919050565b600f5490565b6125196125a0565b612521612db8565b61252a82612de9565b6110cd6001601c540382612daa565b6001600160a01b03918216600090815260046020908152604080832093909416825291909152205460ff1690565b61256f612c96565b61257881612f5b565b611142600182612cad565b6000908152600160205260409020546001600160a01b0316151590565b600d54600160a01b900460ff16156125b757600080fd5b565b6125c2816118a3565b6001600160a01b0316336001600160a01b03161461114257600080fd5b6125e881612583565b6126045760405162461bcd60e51b8152600401610a3c90614224565b336000908152601660205260408120541580159061263e575033600090815260166020908152604080832054858452601290925290912054145b600d549091506001600160a01b03163314806126575750805b6110cd57600080fd5b600061266b82612583565b6126875760405162461bcd60e51b8152600401610a3c90614224565b6000612692836118a3565b9050806001600160a01b0316846001600160a01b031614806126cd5750836001600160a01b03166126c284610a15565b6001600160a01b0316145b806126dd57506126dd8185612539565b949350505050565b6126ee816125b9565b60408051602080820183526000808352835180830185528181528582526010909252929092205490919015612afc5761272561349d565b60008481526010602052604090208054600019810190811061274357fe5b90600052602060002090600702016040518060e001604052908160008201548152602001600182018054600181600116156101000203166002900480601f0160208091040260200160405190810160405280929190818152602001828054600181600116156101000203166002900480156127ff5780601f106127d4576101008083540402835291602001916127ff565b820191906000526020600020905b8154815290600101906020018083116127e257829003601f168201915b5050509183525050600282810180546040805160206001841615610100026000190190931694909404601f810183900483028501830190915280845293810193908301828280156128915780601f1061286657610100808354040283529160200191612891565b820191906000526020600020905b81548152906001019060200180831161287457829003601f168201915b505050918352505060038201805460408051602060026001851615610100026000190190941693909304601f81018490048402820184019092528181529382019392918301828280156129255780601f106128fa57610100808354040283529160200191612925565b820191906000526020600020905b81548152906001019060200180831161290857829003601f168201915b505050918352505060048201805460408051602060026001851615610100026000190190941693909304601f81018490048402820184019092528181529382019392918301828280156129b95780601f1061298e576101008083540402835291602001916129b9565b820191906000526020600020905b81548152906001019060200180831161299c57829003601f168201915b505050918352505060058201805460408051602060026001851615610100026000190190941693909304601f8101849004840282018401909252818152938201939291830182828015612a4d5780601f10612a2257610100808354040283529160200191612a4d565b820191906000526020600020905b815481529060010190602001808311612a3057829003601f168201915b505050918352505060068201805460408051602060026001851615610100026000190190941693909304601f8101849004840282018401909252818152938201939291830182828015612ae15780601f10612ab657610100808354040283529160200191612ae1565b820191906000526020600020905b815481529060010190602001808311612ac457829003601f168201915b50505050508152505090508060600151925080608001519150505b612b0461349d565b6040518060e00160405280612b17610fdd565b81526020016040518060400160405280600381526020016255544f60e81b81525081526020016040518060600160405280603d815260200161481c603d91398152602080820186905260408083018690528051808301825260008082526060850191909152815180840183528181526080909401939093528783526010825282208054600181810183559184529282902084516007909402019283558382015180519495508594612bd0939285019291909101906134da565b5060408201518051612bec9160028401916020909101906134da565b5060608201518051612c089160038401916020909101906134da565b5060808201518051612c249160048401916020909101906134da565b5060a08201518051612c409160058401916020909101906134da565b5060c08201518051612c5c9160068401916020909101906134da565b5050508360008051602061485983398151915282604051612c7d9190614766565b60405180910390a250505050565b611187838383612fdd565b600d546001600160a01b031633146125b757600080fd5b6001600160a01b03811660009081526014602052604090205460ff1615612ce65760405162461bcd60e51b8152600401610a3c906146e8565b600082815260156020908152604080832080546001600160a01b0390811680865260148552838620805460ff1916905582546001600160a01b0319169187169182179092556016909352818420849055828452922084905515612d67576001600160a01b0382166000908152601460205260409020805460ff191660011790555b827f62a8a464f4ff9f07c58e92f42202eba3a665189f8ba42e52345d11281f9a3531836040516110ae9190613e2f565b80516110cd90600b9060208401906134da565b6110cd828261197f565b5490565b600d546001600160a01b0316331480612de057503360009081526014602052604090205460ff165b6125b757600080fd5b61114281612224565b6001600160a01b038116600090815260056020908152604091829020805483518184028101840190945280845260609392830182828015610a0957602002820191906000526020600020908154815260200190600101908083116109f55750505050509050919050565b6110cd8282612ffc565b6000612e7a846001600160a01b0316613019565b612e86575060016126dd565b604051630a85bd0160e11b81526000906001600160a01b0386169063150b7a0290612ebb9033908a9089908990600401613e43565b602060405180830381600087803b158015612ed557600080fd5b505af1158015612ee9573d6000803e3d6000fd5b505050506040513d601f19601f82011682018060405250810190612f0d91906139ca565b6001600160e01b031916630a85bd0160e11b14915050949350505050565b6060612f3682612583565b612f525760405162461bcd60e51b8152600401610a3c9061453a565b6118d88261301f565b6001600160a01b038116612f815760405162461bcd60e51b8152600401610a3c906140fa565b600d546040516001600160a01b038084169216907f8be0079c531659141344cd1fd0a4f28419497f9722a3daafe3b4186f6b6457e090600090a3600d80546001600160a01b0319166001600160a01b0392909216919091179055565b612fe88383836130f6565b612ff283826131ea565b61118782826132e9565b6130068282613327565b61301082826132e9565b6110cd816133dc565b3b151590565b60608161304457506040805180820190915260018152600360fc1b6020820152610918565b8160005b811561305c57600101600a82049150613048565b6060816001600160401b038111801561307457600080fd5b506040519080825280601f01601f19166020018201604052801561309f576020820181803683370190505b50905060001982015b85156130ed57600a860660300160f81b828280600190039350815181106130cb57fe5b60200101906001600160f81b031916908160001a905350600a860495506130a8565b50949350505050565b826001600160a01b0316613109826118a3565b6001600160a01b03161461312f5760405162461bcd60e51b8152600401610a3c906144f1565b6001600160a01b0382166131555760405162461bcd60e51b8152600401610a3c90614176565b61315e81613420565b6001600160a01b038316600090815260036020526040902061317f9061345b565b6001600160a01b03821660009081526003602052604090206131a09061346c565b60008181526001602052604080822080546001600160a01b0319166001600160a01b03868116918217909255915184939187169160008051602061489983398151915291a4505050565b6001600160a01b03821660009081526005602052604081205461320e906001613475565b6000838152600660205260409020549091508082146132a9576001600160a01b038416600090815260056020526040812080548490811061324b57fe5b906000526020600020015490508060056000876001600160a01b03166001600160a01b03168152602001908152602001600020838154811061328957fe5b600091825260208083209091019290925591825260069052604090208190555b6001600160a01b038416600090815260056020526040902080546132ce906001613475565b815481106132d857fe5b600091825260208220015550505050565b6001600160a01b0390911660009081526005602081815260408084208054868652600684529185208290559282526001810183559183529091200155565b6001600160a01b03821661334d5760405162461bcd60e51b8152600401610a3c90614385565b61335681612583565b156133735760405162461bcd60e51b8152600401610a3c90614140565b600081815260016020908152604080832080546001600160a01b0319166001600160a01b0387169081179091558352600390915290206133b29061346c565b60405181906001600160a01b03841690600090600080516020614899833981519152908290a45050565b600780546000838152600860205260408120829055600182018355919091527fa66cc928b5edb82af9bd49922954155ab7b0942694bea4ce44661d9a8736c6880155565b6000818152600260205260409020546001600160a01b03161561114257600090815260026020526040902080546001600160a01b0319169055565b8054613468906001613475565b9055565b80546001019055565b6000828211156134975760405162461bcd60e51b8152600401610a3c906141ed565b50900390565b6040518060e00160405280600081526020016060815260200160608152602001606081526020016060815260200160608152602001606081525090565b828054600181600116156101000203166002900490600052602060002090601f0160209004810192826135105760008555613556565b82601f1061352957805160ff1916838001178555613556565b82800160010185558215613556579182015b8281111561355657825182559160200191906001019061353b565b5061356292915061358e565b5090565b6040518060800160405280600081526020016060815260200160608152602001606081525090565b5b80821115613562576000815560010161358f565b80356001600160a01b038116811461091857600080fd5b600082601f8301126135ca578081fd5b81356001600160401b038111156135dd57fe5b6135f0601f8201601f1916602001614799565b915080825283602082850101111561360757600080fd5b8060208401602084013760009082016020015292915050565b600060808284031215613631578081fd5b61363b6080614799565b82358152905060208201356001600160401b038082111561365b57600080fd5b613667858386016135ba565b6020840152604084013591508082111561368057600080fd5b61368c858386016135ba565b604084015260608401359150808211156136a557600080fd5b506136b2848285016135ba565b60608301525092915050565b600060e082840312156136cf578081fd5b6136d960e0614799565b82358152905060208201356001600160401b03808211156136f957600080fd5b613705858386016135ba565b6020840152604084013591508082111561371e57600080fd5b61372a858386016135ba565b6040840152606084013591508082111561374357600080fd5b61374f858386016135ba565b6060840152608084013591508082111561376857600080fd5b613774858386016135ba565b608084015260a084013591508082111561378d57600080fd5b613799858386016135ba565b60a084015260c08401359150808211156137b257600080fd5b506137bf848285016135ba565b60c08301525092915050565b6000602082840312156137dc578081fd5b6137e5826135a3565b9392505050565b600080604083850312156137fe578081fd5b613807836135a3565b9150613815602084016135a3565b90509250929050565b600080600060608486031215613832578081fd5b61383b846135a3565b9250613849602085016135a3565b9150604084013590509250925092565b6000806000806080858703121561386e578081fd5b613877856135a3565b9350613885602086016135a3565b92506040850135915060608501356001600160401b038111156138a6578182fd5b6138b2878288016135ba565b91505092959194509250565b600080604083850312156138d0578182fd5b6138d9836135a3565b9150602083013580151581146138ed578182fd5b809150509250929050565b6000806040838503121561390a578182fd5b613913836135a3565b946020939093013593505050565b60006020808385031215613933578182fd5b82356001600160401b03811115613948578283fd5b8301601f81018513613958578283fd5b803561396b613966826147bc565b614799565b81815283810190838501865b848110156139a05761398e8a888435890101613620565b84529286019290860190600101613977565b509098975050505050505050565b6000602082840312156139bf578081fd5b81356137e581614805565b6000602082840312156139db578081fd5b81516137e581614805565b6000602082840312156139f7578081fd5b81356001600160401b03811115613a0c578182fd5b6126dd848285016135ba565b600060208284031215613a29578081fd5b81356001600160401b03811115613a3e578182fd5b6126dd84828501613620565b60008060408385031215613a5c578182fd5b82356001600160401b0380821115613a72578384fd5b613a7e86838701613620565b93506020850135915080821115613a93578283fd5b50613aa0858286016136be565b9150509250929050565b600060208284031215613abb578081fd5b5035919050565b60008060408385031215613ad4578182fd5b82359150613815602084016135a3565b60008060408385031215613af6578182fd5b823591506020808401356001600160401b03811115613b13578283fd5b8401601f81018613613b23578283fd5b8035613b31613966826147bc565b81815283810190838501865b84811015613b6657613b548b8884358901016136be565b84529286019290860190600101613b3d565b5096999098509650505050505050565b60008060008060808587031215613b8b578182fd5b8435935060208501356001600160401b0380821115613ba8578384fd5b613bb4888389016135ba565b94506040870135915080821115613bc9578384fd5b613bd5888389016135ba565b93506060870135915080821115613bea578283fd5b506138b2878288016135ba565b60008060408385031215613c09578182fd5b8235915060208301356001600160401b03811115613c25578182fd5b613aa085828601613620565b60008060408385031215613c43578182fd5b8235915060208301356001600160401b03811115613c5f578182fd5b613aa0858286016136be565b60008151808452613c838160208601602086016147d9565b601f01601f19169290920160200192915050565b600081518352602082015160806020850152613cb66080850182613c6b565b905060408301518482036040860152613ccf8282613c6b565b91505060608301518482036060860152613ce98282613c6b565b95945050505050565b600081518352602082015160e06020850152613d1160e0850182613c6b565b905060408301518482036040860152613d2a8282613c6b565b91505060608301518482036060860152613d448282613c6b565b91505060808301518482036080860152613d5e8282613c6b565b91505060a083015184820360a0860152613d788282613c6b565b91505060c083015184820360c0860152613ce98282613c6b565b60008251613da48184602087016147d9565b9190910192915050565b6000808454600180821660008114613dcd5760018114613de457613e13565b60ff198316865260028304607f1686019350613e13565b600283048886526020808720875b83811015613e0b5781548a820152908501908201613df2565b505050860193505b5050508351613e268183602088016147d9565b01949350505050565b6001600160a01b0391909116815260200190565b6001600160a01b0385811682528416602082015260408101839052608060608201819052600090613e7690830184613c6b565b9695505050505050565b6001600160a01b039290921682521515602082015260400190565b6001600160a01b03831681526040602082018190526000906126dd90830184613c6b565b6001600160a01b0392831681529116602082015260400190565b6020808252825182820181905260009190848201906040850190845b81811015613f1a5783516001600160a01b031683529284019291840191600101613ef5565b50909695505050505050565b6000602080830181845280855180835260408601915060408482028701019250838701855b82811015613f7957603f19888603018452613f67858351613c97565b94509285019290850190600101613f4b565b5092979650505050505050565b6000602080830181845280855180835260408601915060408482028701019250838701855b82811015613f7957603f19888603018452613fc7858351613cf2565b94509285019290850190600101613fab565b6020808252825182820181905260009190848201906040850190845b81811015613f1a57835183529284019291840191600101613ff5565b901515815260200190565b6000602082526137e56020830184613c6b565b60208082526014908201527314185d5cd8589b194e881b9bdd081c185d5cd95960621b604082015260600190565b6020808252602b908201527f455243373231456e756d657261626c653a206f776e657220696e646578206f7560408201526a74206f6620626f756e647360a81b606082015260800190565b60208082526032908201527f4552433732313a207472616e7366657220746f206e6f6e20455243373231526560408201527131b2b4bb32b91034b6b83632b6b2b73a32b960711b606082015260800190565b60208082526026908201527f4f776e61626c653a206e6577206f776e657220697320746865207a65726f206160408201526564647265737360d01b606082015260800190565b6020808252601c908201527b115490cdcc8c4e881d1bdad95b88185b1c9958591e481b5a5b9d195960221b604082015260600190565b60208082526024908201527f4552433732313a207472616e7366657220746f20746865207a65726f206164646040820152637265737360e01b606082015260800190565b60208082526019908201527822a9219b99189d1030b8383937bb32903a379031b0b63632b960391b604082015260600190565b6020808252601e908201527f536166654d6174683a207375627472616374696f6e206f766572666c6f770000604082015260600190565b6020808252602c908201527f4552433732313a206f70657261746f7220717565727920666f72206e6f6e657860408201526b34b9ba32b73a103a37b5b2b760a11b606082015260800190565b60208082526010908201526f14185d5cd8589b194e881c185d5cd95960821b604082015260600190565b60208082526038908201527f4552433732313a20617070726f76652063616c6c6572206973206e6f74206f776040820152771b995c881b9bdc88185c1c1c9bdd995908199bdc88185b1b60421b606082015260800190565b6020808252602a908201527f4552433732313a2062616c616e636520717565727920666f7220746865207a65604082015269726f206164647265737360b01b606082015260800190565b60208082526029908201527f4552433732313a206f776e657220717565727920666f72206e6f6e657869737460408201526832b73a103a37b5b2b760b91b606082015260800190565b6020808252818101527f4552433732313a206d696e7420746f20746865207a65726f2061646472657373604082015260600190565b60208082526042908201527f54686520746f6b656e206f776e657273686970207472616e736665722068617360408201527f206265656e2064697361626c65642062792074686520746f6b656e206f776e65606082015261391760f11b608082015260a00190565b6020808252602c908201527f4552433732313a20617070726f76656420717565727920666f72206e6f6e657860408201526b34b9ba32b73a103a37b5b2b760a11b606082015260800190565b6020808252602e908201527f4554482073656e7420617265206e6f7420656e6f75676820746f207472616e7360408201526d3332b9103a3432903a37b5b2b71760911b606082015260800190565b6020808252818101527f4f776e61626c653a2063616c6c6572206973206e6f7420746865206f776e6572604082015260600190565b60208082526029908201527f4552433732313a207472616e73666572206f6620746f6b656e2074686174206960408201526839903737ba1037bbb760b91b606082015260800190565b6020808252602f908201527f4552433732314d657461646174613a2055524920717565727920666f72206e6f60408201526e3732bc34b9ba32b73a103a37b5b2b760891b606082015260800190565b6020808252602c908201527f4554482073656e7420617265206e6f7420656e6f75676820746f20637265617460408201526b32903a3432903a37b5b2b71760a11b606082015260800190565b60208082526021908201527f4552433732313a20617070726f76616c20746f2063757272656e74206f776e656040820152603960f91b606082015260800190565b60208082526031908201527f4552433732313a207472616e736665722063616c6c6572206973206e6f74206f6040820152701ddb995c881b9bdc88185c1c1c9bdd9959607a1b606082015260800190565b6020808252602c908201527f455243373231456e756d657261626c653a20676c6f62616c20696e646578206f60408201526b7574206f6620626f756e647360a01b606082015260800190565b6020808252818101527f47656e75696e6f206272616e642063616e6e6f742062652072656d6f7665642e604082015260600190565b60208082526029908201527f41206272616e6420776974682074686973206164647265737320616c726561646040820152683c9032bc34b9ba399760b91b606082015260800190565b6000602082526137e56020830184613c97565b6000604082526147576040830185613c97565b90508260208301529392505050565b6000602082526137e56020830184613cf2565b90815260200190565b9182526001600160a01b0316602082015260400190565b6040518181016001600160401b03811182821017156147b457fe5b604052919050565b60006001600160401b038211156147cf57fe5b5060209081020190565b60005b838110156147f45781810151838201526020016147dc565b838111156124705750506000910152565b6001600160e01b03198116811461114257600080fdfe7b656e2d55533a22546f6b656e204f776e6572736869702055706461746564222c2069742d49543a2243657373696f6e652050726f707269657461227de26c840026604e4dfe482807ea48562e6274b426f7c4d987a3ae32f6bf88ae65a1badb7ef373f50a999bf9a3b5521c8651f9b6dd31984c1cda081527c9cb3ef7ddf252ad1be2c89b69c2b068fc378daa952ba7f163c4a11628f55a4df523b3ef7b20656e2d55533a224c6f636174696f6e2055706461746564222c2069742d49543a22506f73697a696f6e6520416767696f726e617461227da26469706673582212203a23deb133ed3326e83e8b4c1cc644bff15666a9542fb506cd2d3ed9f104c2eb64736f6c63430007040033",
  "immutableReferences": {},
  "source": "// File: dev/library/ERC721/introspection/IERC165.sol\n\n// SPDX-License-Identifier: UNLICENSED\npragma solidity ^0.7.4;\n\n/**\n * @dev Interface of the ERC165 standard, as defined in the\n * [EIP](https://eips.ethereum.org/EIPS/eip-165).\n *\n * Implementers can declare support of contract interfaces, which can then be\n * queried by others (`ERC165Checker`).\n *\n * For an implementation, see `ERC165`.\n */\ninterface IERC165 {\n    /**\n     * @dev Returns true if this contract implements the interface defined by\n     * `interfaceId`. See the corresponding\n     * [EIP section](https://eips.ethereum.org/EIPS/eip-165#how-interfaces-are-identified)\n     * to learn more about how these ids are created.\n     *\n     * This function call must use less than 30 000 gas.\n     */\n    function supportsInterface(bytes4 interfaceId) external view returns (bool);\n}\n\n// File: dev/library/ERC721/IERC721.sol\n\npragma solidity ^0.7.4;\n\n\n/**\n * @dev Required interface of an ERC721 compliant contract.\n */\nabstract contract IERC721 is IERC165 {\n    event Transfer(address indexed from, address indexed to, uint256 indexed tokenId);\n    event Approval(address indexed owner, address indexed approved, uint256 indexed tokenId);\n    event ApprovalForAll(address indexed owner, address indexed operator, bool approved);\n\n    /**\n     * @dev Returns the number of NFTs in `owner`'s account.\n     */\n    function balanceOf(address owner) virtual public view returns (uint256 balance);\n\n    /**\n     * @dev Returns the owner of the NFT specified by `tokenId`.\n     */\n    function ownerOf(uint256 tokenId) virtual public view returns (address owner);\n\n    /**\n     * @dev Transfers a specific NFT (`tokenId`) from one account (`from`) to\n     * another (`to`).\n     *\n     * \n     *\n     * Requirements:\n     * - `from`, `to` cannot be zero.\n     * - `tokenId` must be owned by `from`.\n     * - If the caller is not `from`, it must be have been allowed to move this\n     * NFT by either `approve` or `setApproveForAll`.\n     */\n    function safeTransferFrom(address from, address to, uint256 tokenId) virtual public payable;\n    /**\n     * @dev Transfers a specific NFT (`tokenId`) from one account (`from`) to\n     * another (`to`).\n     *\n     * Requirements:\n     * - If the caller is not `from`, it must be approved to move this NFT by\n     * either `approve` or `setApproveForAll`.\n     */\n    function transferFrom(address from, address to, uint256 tokenId) virtual public payable;\n    function approve(address to, uint256 tokenId) virtual public;\n    function getApproved(uint256 tokenId) virtual public view returns (address operator);\n\n    function setApprovalForAll(address operator, bool _approved) virtual public;\n    function isApprovedForAll(address owner, address operator) virtual public view returns (bool);\n    function safeTransferFrom(address from, address to, uint256 tokenId, bytes memory data) virtual public payable;\n}\n\n// File: dev/library/ERC721/IERC721Receiver.sol\n\npragma solidity ^0.7.4;\n\n/**\n * @title ERC721 token receiver interface\n * @dev Interface for any contract that wants to support safeTransfers\n * from ERC721 asset contracts.\n */\nabstract contract IERC721Receiver {\n    /**\n     * @notice Handle the receipt of an NFT\n     * @dev The ERC721 smart contract calls this function on the recipient\n     * after a `safeTransfer`. This function MUST return the function selector,\n     * otherwise the caller will revert the transaction. The selector to be\n     * returned can be obtained as `this.onERC721Received.selector`. This\n     * function MAY throw to revert and reject the transfer.\n     * Note: the ERC721 contract address is always the message sender.\n     * @param operator The address which called `safeTransferFrom` function\n     * @param from The address which previously owned the token\n     * @param tokenId The NFT identifier which is being transferred\n     * @param data Additional data with no specified format\n     * @return bytes4 `bytes4(keccak256(\"onERC721Received(address,address,uint256,bytes)\"))`\n     */\n    function onERC721Received(address operator, address from, uint256 tokenId, bytes memory data)\n    virtual public returns (bytes4);\n}\n\n// File: dev/library/math/SafeMath.sol\n\npragma solidity ^0.7.4;\n\n/**\n * @dev Wrappers over Solidity's arithmetic operations with added overflow\n * checks.\n *\n * Arithmetic operations in Solidity wrap on overflow. This can easily result\n * in bugs, because programmers usually assume that an overflow raises an\n * error, which is the standard behavior in high level programming languages.\n * `SafeMath` restores this intuition by reverting the transaction when an\n * operation overflows.\n *\n * Using this library instead of the unchecked operations eliminates an entire\n * class of bugs, so it's recommended to use it always.\n */\nlibrary SafeMath {\n    /**\n     * @dev Returns the addition of two unsigned integers, reverting on\n     * overflow.\n     *\n     * Counterpart to Solidity's `+` operator.\n     *\n     * Requirements:\n     * - Addition cannot overflow.\n     */\n    function add(uint256 a, uint256 b) internal pure returns (uint256) {\n        uint256 c = a + b;\n        require(c >= a, \"SafeMath: addition overflow\");\n\n        return c;\n    }\n\n    /**\n     * @dev Returns the subtraction of two unsigned integers, reverting on\n     * overflow (when the result is negative).\n     *\n     * Counterpart to Solidity's `-` operator.\n     *\n     * Requirements:\n     * - Subtraction cannot overflow.\n     */\n    function sub(uint256 a, uint256 b) internal pure returns (uint256) {\n        require(b <= a, \"SafeMath: subtraction overflow\");\n        uint256 c = a - b;\n\n        return c;\n    }\n\n    /**\n     * @dev Returns the multiplication of two unsigned integers, reverting on\n     * overflow.\n     *\n     * Counterpart to Solidity's `*` operator.\n     *\n     * Requirements:\n     * - Multiplication cannot overflow.\n     */\n    function mul(uint256 a, uint256 b) internal pure returns (uint256) {\n        // Gas optimization: this is cheaper than requiring 'a' not being zero, but the\n        // benefit is lost if 'b' is also tested.\n        // See: https://github.com/OpenZeppelin/openzeppelin-contracts/pull/522\n        if (a == 0) {\n            return 0;\n        }\n\n        uint256 c = a * b;\n        require(c / a == b, \"SafeMath: multiplication overflow\");\n\n        return c;\n    }\n\n    /**\n     * @dev Returns the integer division of two unsigned integers. Reverts on\n     * division by zero. The result is rounded towards zero.\n     *\n     * Counterpart to Solidity's `/` operator. Note: this function uses a\n     * `revert` opcode (which leaves remaining gas untouched) while Solidity\n     * uses an invalid opcode to revert (consuming all remaining gas).\n     *\n     * Requirements:\n     * - The divisor cannot be zero.\n     */\n    function div(uint256 a, uint256 b) internal pure returns (uint256) {\n        // Solidity only automatically asserts when dividing by 0\n        require(b > 0, \"SafeMath: division by zero\");\n        uint256 c = a / b;\n        // assert(a == b * c + a % b); // There is no case in which this doesn't hold\n\n        return c;\n    }\n\n    /**\n     * @dev Returns the remainder of dividing two unsigned integers. (unsigned integer modulo),\n     * Reverts when dividing by zero.\n     *\n     * Counterpart to Solidity's `%` operator. This function uses a `revert`\n     * opcode (which leaves remaining gas untouched) while Solidity uses an\n     * invalid opcode to revert (consuming all remaining gas).\n     *\n     * Requirements:\n     * - The divisor cannot be zero.\n     */\n    function mod(uint256 a, uint256 b) internal pure returns (uint256) {\n        require(b != 0, \"SafeMath: modulo by zero\");\n        return a % b;\n    }\n}\n\n// File: dev/library/utils/Address.sol\n\npragma solidity ^0.7.4;\n\n/**\n * @dev Collection of functions related to the address type,\n */\nlibrary Address {\n    /**\n     * @dev Returns true if `account` is a contract.\n     *\n     * This test is non-exhaustive, and there may be false-negatives: during the\n     * execution of a contract's constructor, its address will be reported as\n     * not containing a contract.\n     *\n     * > It is unsafe to assume that an address for which this function returns\n     * false is an externally-owned account (EOA) and not a contract.\n     */\n    function isContract(address account) internal view returns (bool) {\n        // This method relies in extcodesize, which returns 0 for contracts in\n        // construction, since the code is only stored at the end of the\n        // constructor execution.\n\n        uint256 size;\n        // solhint-disable-next-line no-inline-assembly\n        assembly { size := extcodesize(account) }\n        return size > 0;\n    }\n}\n\n// File: dev/library/drafts/Counters.sol\n\npragma solidity ^0.7.4;\n\n\n/**\n * @title Counters\n * @author Matt Condon (@shrugs)\n * @dev Provides counters that can only be incremented or decremented by one. This can be used e.g. to track the number\n * of elements in a mapping, issuing ERC721 ids, or counting request ids.\n *\n * Include with `using Counters for Counters.Counter;`\n * Since it is not possible to overflow a 256 bit integer with increments of one, `increment` can skip the SafeMath\n * overflow check, thereby saving gas. This does assume however correct usage, in that the underlying `_value` is never\n * directly accessed.\n */\nlibrary Counters {\n    using SafeMath for uint256;\n\n    struct Counter {\n        // This variable should never be directly accessed by users of the library: interactions must be restricted to\n        // the library's function. As of Solidity v0.5.2, this cannot be enforced, though there is a proposal to add\n        // this feature: see https://github.com/ethereum/solidity/issues/4637\n        uint256 _value; // default: 0\n    }\n\n    function current(Counter storage counter) internal view returns (uint256) {\n        return counter._value;\n    }\n\n    function increment(Counter storage counter) internal {\n        counter._value += 1;\n    }\n\n    function decrement(Counter storage counter) internal {\n        counter._value = counter._value.sub(1);\n    }\n}\n\n// File: dev/library/ERC721/introspection/ERC165.sol\n\npragma solidity ^0.7.4;\n\n\n/**\n * @dev Implementation of the `IERC165` interface.\n *\n * Contracts may inherit from this and call `_registerInterface` to declare\n * their support of an interface.\n */\ncontract ERC165 is IERC165 {\n    /*\n     * bytes4(keccak256('supportsInterface(bytes4)')) == 0x01ffc9a7\n     */\n    bytes4 private constant _INTERFACE_ID_ERC165 = 0x01ffc9a7;\n\n    /**\n     * @dev Mapping of interface ids to whether or not it's supported.\n     */\n    mapping(bytes4 => bool) private _supportedInterfaces;\n\n    constructor () {\n        // Derived contracts need only register support for their own interfaces,\n        // we register support for ERC165 itself here\n        _registerInterface(_INTERFACE_ID_ERC165);\n    }\n\n    /**\n     * @dev See `IERC165.supportsInterface`.\n     *\n     * Time complexity O(1), guaranteed to always use less than 30 000 gas.\n     */\n    function supportsInterface(bytes4 interfaceId) override external view returns (bool) {\n        return _supportedInterfaces[interfaceId];\n    }\n\n    /**\n     * @dev Registers the contract as an implementer of the interface defined by\n     * `interfaceId`. Support of the actual ERC165 interface is automatic and\n     * registering its interface id is not required.\n     *\n     * See `IERC165.supportsInterface`.\n     *\n     * Requirements:\n     *\n     * - `interfaceId` cannot be the ERC165 invalid interface (`0xffffffff`).\n     */\n    function _registerInterface(bytes4 interfaceId) internal {\n        require(interfaceId != 0xffffffff, \"ERC165: invalid interface id\");\n        _supportedInterfaces[interfaceId] = true;\n    }\n}\n\n// File: dev/library/ERC721/ERC721.sol\n\npragma solidity ^0.7.4;\n\n\n\n\n\n\n\n/**\n * @title ERC721 Non-Fungible Token Standard basic implementation\n * @dev see https://eips.ethereum.org/EIPS/eip-721\n */\ncontract ERC721 is ERC165, IERC721 {\n    using SafeMath for uint256;\n    using Address for address;\n    using Counters for Counters.Counter;\n\n    // Equals to `bytes4(keccak256(\"onERC721Received(address,address,uint256,bytes)\"))`\n    // which can be also obtained as `IERC721Receiver(0).onERC721Received.selector`\n    bytes4 private constant _ERC721_RECEIVED = 0x150b7a02;\n\n    // Mapping from token ID to owner\n    mapping (uint256 => address) private _tokenOwner;\n\n    // Mapping from token ID to approved address\n    mapping (uint256 => address) private _tokenApprovals;\n\n    // Mapping from owner to number of owned token\n    mapping (address => Counters.Counter) private _ownedTokensCount;\n\n    // Mapping from owner to operator approvals\n    mapping (address => mapping (address => bool)) private _operatorApprovals;\n\n    /*\n     *     bytes4(keccak256('balanceOf(address)')) == 0x70a08231\n     *     bytes4(keccak256('ownerOf(uint256)')) == 0x6352211e\n     *     bytes4(keccak256('approve(address,uint256)')) == 0x095ea7b3\n     *     bytes4(keccak256('getApproved(uint256)')) == 0x081812fc\n     *     bytes4(keccak256('setApprovalForAll(address,bool)')) == 0xa22cb465\n     *     bytes4(keccak256('isApprovedForAll(address,address)')) == 0xe985e9c\n     *     bytes4(keccak256('transferFrom(address,address,uint256)')) == 0x23b872dd\n     *     bytes4(keccak256('safeTransferFrom(address,address,uint256)')) == 0x42842e0e\n     *     bytes4(keccak256('safeTransferFrom(address,address,uint256,bytes)')) == 0xb88d4fde\n     *\n     *     => 0x70a08231 ^ 0x6352211e ^ 0x095ea7b3 ^ 0x081812fc ^\n     *        0xa22cb465 ^ 0xe985e9c ^ 0x23b872dd ^ 0x42842e0e ^ 0xb88d4fde == 0x80ac58cd\n     */\n    bytes4 private constant _INTERFACE_ID_ERC721 = 0x80ac58cd;\n\n    constructor () {\n        // register the supported interfaces to conform to ERC721 via ERC165\n        _registerInterface(_INTERFACE_ID_ERC721);\n    }\n\n    /**\n     * @dev Gets the balance of the specified address.\n     * @param owner address to query the balance of\n     * @return uint256 representing the amount owned by the passed address\n     */\n    function balanceOf(address owner) override public view returns (uint256) {\n        require(owner != address(0), \"ERC721: balance query for the zero address\");\n\n        return _ownedTokensCount[owner].current();\n    }\n\n    /**\n     * @dev Gets the owner of the specified token ID.\n     * @param tokenId uint256 ID of the token to query the owner of\n     * @return address currently marked as the owner of the given token ID\n     */\n    function ownerOf(uint256 tokenId) override public view returns (address) {\n        address owner = _tokenOwner[tokenId];\n        require(owner != address(0), \"ERC721: owner query for nonexistent token\");\n\n        return owner;\n    }\n\n    /**\n     * @dev Approves another address to transfer the given token ID\n     * The zero address indicates there is no approved address.\n     * There can only be one approved address per token at a given time.\n     * Can only be called by the token owner or an approved operator.\n     * @param to address to be approved for the given token ID\n     * @param tokenId uint256 ID of the token to be approved\n     */\n    function approve(address to, uint256 tokenId) override public {\n        address owner = ownerOf(tokenId);\n        require(to != owner, \"ERC721: approval to current owner\");\n\n        require(msg.sender == owner || isApprovedForAll(owner, msg.sender),\n            \"ERC721: approve caller is not owner nor approved for all\"\n        );\n\n        _tokenApprovals[tokenId] = to;\n        emit Approval(owner, to, tokenId);\n    }\n\n    /**\n     * @dev Gets the approved address for a token ID, or zero if no address set\n     * Reverts if the token ID does not exist.\n     * @param tokenId uint256 ID of the token to query the approval of\n     * @return address currently approved for the given token ID\n     */\n    function getApproved(uint256 tokenId) override public view returns (address) {\n        require(_exists(tokenId), \"ERC721: approved query for nonexistent token\");\n\n        return _tokenApprovals[tokenId];\n    }\n\n    /**\n     * @dev Sets or unsets the approval of a given operator\n     * An operator is allowed to transfer all tokens of the sender on their behalf.\n     * @param to operator address to set the approval\n     * @param approved representing the status of the approval to be set\n     */\n    function setApprovalForAll(address to, bool approved) override public {\n        require(to != msg.sender, \"ERC721: approve to caller\");\n\n        _operatorApprovals[msg.sender][to] = approved;\n        emit ApprovalForAll(msg.sender, to, approved);\n    }\n\n    /**\n     * @dev Tells whether an operator is approved by a given owner.\n     * @param owner owner address which you want to query the approval of\n     * @param operator operator address which you want to query the approval of\n     * @return bool whether the given operator is approved by the given owner\n     */\n    function isApprovedForAll(address owner, address operator) override public view returns (bool) {\n        return _operatorApprovals[owner][operator];\n    }\n\n    /**\n     * @dev Transfers the ownership of a given token ID to another address.\n     * Usage of this method is discouraged, use `safeTransferFrom` whenever possible.\n     * Requires the msg.sender to be the owner, approved, or operator.\n     * @param from current owner of the token\n     * @param to address to receive the ownership of the given token ID\n     * @param tokenId uint256 ID of the token to be transferred\n     */\n    function transferFrom(address from, address to, uint256 tokenId) virtual override public payable{\n        //solhint-disable-next-line max-line-length\n        require(_isApprovedOrOwner(msg.sender, tokenId), \"ERC721: transfer caller is not owner nor approved\");\n\n        _transferFrom(from, to, tokenId);\n    }\n\n    /**\n     * @dev Safely transfers the ownership of a given token ID to another address\n     * If the target address is a contract, it must implement `onERC721Received`,\n     * which is called upon a safe transfer, and return the magic value\n     * `bytes4(keccak256(\"onERC721Received(address,address,uint256,bytes)\"))`; otherwise,\n     * the transfer is reverted.\n     * Requires the msg.sender to be the owner, approved, or operator\n     * @param from current owner of the token\n     * @param to address to receive the ownership of the given token ID\n     * @param tokenId uint256 ID of the token to be transferred\n     */\n    function safeTransferFrom(address from, address to, uint256 tokenId) override public payable {\n        safeTransferFrom(from, to, tokenId, \"\");\n    }\n\n    /**\n     * @dev Safely transfers the ownership of a given token ID to another address\n     * If the target address is a contract, it must implement `onERC721Received`,\n     * which is called upon a safe transfer, and return the magic value\n     * `bytes4(keccak256(\"onERC721Received(address,address,uint256,bytes)\"))`; otherwise,\n     * the transfer is reverted.\n     * Requires the msg.sender to be the owner, approved, or operator\n     * @param from current owner of the token\n     * @param to address to receive the ownership of the given token ID\n     * @param tokenId uint256 ID of the token to be transferred\n     * @param _data bytes data to send along with a safe transfer check\n     */\n    function safeTransferFrom(address from, address to, uint256 tokenId, bytes memory _data) override public payable{\n        transferFrom(from, to, tokenId);\n        require(_checkOnERC721Received(from, to, tokenId, _data), \"ERC721: transfer to non ERC721Receiver implementer\");\n    }\n\n    /**\n     * @dev Returns whether the specified token exists.\n     * @param tokenId uint256 ID of the token to query the existence of\n     * @return bool whether the token exists\n     */\n    function _exists(uint256 tokenId) internal view returns (bool) {\n        address owner = _tokenOwner[tokenId];\n        return owner != address(0);\n    }\n\n    /**\n     * @dev Returns whether the given spender can transfer a given token ID.\n     * @param spender address of the spender to query\n     * @param tokenId uint256 ID of the token to be transferred\n     * @return bool whether the msg.sender is approved for the given token ID,\n     * is an operator of the owner, or is the owner of the token\n     */\n    function _isApprovedOrOwner(address spender, uint256 tokenId) internal view returns (bool) {\n        require(_exists(tokenId), \"ERC721: operator query for nonexistent token\");\n        address owner = ownerOf(tokenId);\n        return (spender == owner || getApproved(tokenId) == spender || isApprovedForAll(owner, spender));\n    }\n\n    /**\n     * @dev Internal function to mint a new token.\n     * Reverts if the given token ID already exists.\n     * @param to The address that will own the minted token\n     * @param tokenId uint256 ID of the token to be minted\n     */\n    function _mint(address to, uint256 tokenId) virtual internal {\n        require(to != address(0), \"ERC721: mint to the zero address\");\n        require(!_exists(tokenId), \"ERC721: token already minted\");\n\n        _tokenOwner[tokenId] = to;\n        _ownedTokensCount[to].increment();\n\n        emit Transfer(address(0), to, tokenId);\n    }\n\n\n    /**\n     * @dev Internal function to transfer ownership of a given token ID to another address.\n     * As opposed to transferFrom, this imposes no restrictions on msg.sender.\n     * @param from current owner of the token\n     * @param to address to receive the ownership of the given token ID\n     * @param tokenId uint256 ID of the token to be transferred\n     */\n    function _transferFrom(address from, address to, uint256 tokenId) virtual internal {\n        require(ownerOf(tokenId) == from, \"ERC721: transfer of token that is not own\");\n        require(to != address(0), \"ERC721: transfer to the zero address\");\n\n        _clearApproval(tokenId);\n\n        _ownedTokensCount[from].decrement();\n        _ownedTokensCount[to].increment();\n\n        _tokenOwner[tokenId] = to;\n\n        emit Transfer(from, to, tokenId);\n    }\n\n    /**\n     * @dev Internal function to invoke `onERC721Received` on a target address.\n     * The call is not executed if the target address is not a contract.\n     *\n     * This function is deprecated.\n     * @param from address representing the previous owner of the given token ID\n     * @param to target address that will receive the tokens\n     * @param tokenId uint256 ID of the token to be transferred\n     * @param _data bytes optional data to send along with the call\n     * @return bool whether the call correctly returned the expected magic value\n     */\n    function _checkOnERC721Received(address from, address to, uint256 tokenId, bytes memory _data)\n        internal returns (bool)\n    {\n        if (!to.isContract()) {\n            return true;\n        }\n\n        bytes4 retval = IERC721Receiver(to).onERC721Received(msg.sender, from, tokenId, _data);\n        return (retval == _ERC721_RECEIVED);\n    }\n\n    /**\n     * @dev Private function to clear current approval of a given token ID.\n     * @param tokenId uint256 ID of the token to be transferred\n     */\n    function _clearApproval(uint256 tokenId) private {\n        if (_tokenApprovals[tokenId] != address(0)) {\n            _tokenApprovals[tokenId] = address(0);\n        }\n    }\n}\n\n// File: dev/library/ERC721/IERC721Enumerable.sol\n\npragma solidity ^0.7.4;\n\n\n/**\n * @title ERC-721 Non-Fungible Token Standard, optional enumeration extension\n * @dev See https://eips.ethereum.org/EIPS/eip-721\n */\nabstract contract IERC721Enumerable is IERC721 {\n    function totalSupply() virtual public view returns (uint256);\n    function tokenOfOwnerByIndex(address owner, uint256 index) virtual public view returns (uint256 tokenId);\n\n    function tokenByIndex(uint256 index) virtual public view returns (uint256);\n}\n\n// File: dev/library/ERC721/ERC721Enumerable.sol\n\npragma solidity ^0.7.4;\n\n\n\n\n/**\n * @title ERC-721 Non-Fungible Token with optional enumeration extension logic\n * @dev See https://eips.ethereum.org/EIPS/eip-721\n */\ncontract ERC721Enumerable is ERC165, ERC721, IERC721Enumerable {\n    // Mapping from owner to list of owned token IDs\n    mapping(address => uint256[]) private _ownedTokens;\n\n    // Mapping from token ID to index of the owner tokens list\n    mapping(uint256 => uint256) private _ownedTokensIndex;\n\n    using SafeMath for uint256;\n\n    // Array with all token ids, used for enumeration\n    uint256[] private _allTokens;\n\n    // Mapping from token id to position in the allTokens array\n    mapping(uint256 => uint256) private _allTokensIndex;\n\n    /*\n     *     bytes4(keccak256('totalSupply()')) == 0x18160ddd\n     *     bytes4(keccak256('tokenOfOwnerByIndex(address,uint256)')) == 0x2f745c59\n     *     bytes4(keccak256('tokenByIndex(uint256)')) == 0x4f6ccce7\n     *\n     *     => 0x18160ddd ^ 0x2f745c59 ^ 0x4f6ccce7 == 0x780e9d63\n     */\n    bytes4 private constant _INTERFACE_ID_ERC721_ENUMERABLE = 0x780e9d63;\n\n    /**\n     * @dev Constructor function.\n     */\n    constructor () {\n        // register the supported interface to conform to ERC721Enumerable via ERC165\n        _registerInterface(_INTERFACE_ID_ERC721_ENUMERABLE);\n    }\n\n    /**\n     * @dev Gets the token ID at a given index of the tokens list of the requested owner.\n     * @param owner address owning the tokens list to be accessed\n     * @param index uint256 representing the index to be accessed of the requested tokens list\n     * @return uint256 token ID at the given index of the tokens list owned by the requested address\n     */\n    function tokenOfOwnerByIndex(address owner, uint256 index) override public view returns (uint256) {\n        require(index < balanceOf(owner), \"ERC721Enumerable: owner index out of bounds\");\n        return _ownedTokens[owner][index];\n    }\n\n    /**\n     * @dev Gets the total amount of tokens stored by the contract.\n     * @return uint256 representing the total amount of tokens\n     */\n    function totalSupply() override public view returns (uint256) {\n        return _allTokens.length;\n    }\n\n    /**\n     * @dev Gets the token ID at a given index of all the tokens in this contract\n     * Reverts if the index is greater or equal to the total number of tokens.\n     * @param index uint256 representing the index to be accessed of the tokens list\n     * @return uint256 token ID at the given index of the tokens list\n     */\n    function tokenByIndex(uint256 index) override public view returns (uint256) {\n        require(index < totalSupply(), \"ERC721Enumerable: global index out of bounds\");\n        return _allTokens[index];\n    }\n\n    /**\n     * @dev Internal function to transfer ownership of a given token ID to another address.\n     * As opposed to transferFrom, this imposes no restrictions on msg.sender.\n     * @param from current owner of the token\n     * @param to address to receive the ownership of the given token ID\n     * @param tokenId uint256 ID of the token to be transferred\n     */\n    function _transferFrom(address from, address to, uint256 tokenId) virtual override internal {\n        super._transferFrom(from, to, tokenId);\n\n        _removeTokenFromOwnerEnumeration(from, tokenId);\n\n        _addTokenToOwnerEnumeration(to, tokenId);\n    }\n\n    /**\n     * @dev Internal function to mint a new token.\n     * Reverts if the given token ID already exists.\n     * @param to address the beneficiary that will own the minted token\n     * @param tokenId uint256 ID of the token to be minted\n     */\n    function _mint(address to, uint256 tokenId) virtual override internal {\n        super._mint(to, tokenId);\n\n        _addTokenToOwnerEnumeration(to, tokenId);\n\n        _addTokenToAllTokensEnumeration(tokenId);\n    }\n\n    /**\n     * @dev Gets the list of token IDs of the requested owner.\n     * @param owner address owning the tokens\n     * @return uint256[] List of token IDs owned by the requested address\n     */\n    function _tokensOfOwner(address owner) internal view returns (uint256[] memory) {\n        return _ownedTokens[owner];\n    }\n\n    function tokensOfOwner(address owner) public view returns (uint256[] memory) {\n        return _tokensOfOwner(owner);\n    }\n\n    /**\n     * @dev Private function to add a token to this extension's ownership-tracking data structures.\n     * @param to address representing the new owner of the given token ID\n     * @param tokenId uint256 ID of the token to be added to the tokens list of the given address\n     */\n    function _addTokenToOwnerEnumeration(address to, uint256 tokenId) private {\n        _ownedTokensIndex[tokenId] = _ownedTokens[to].length;\n        _ownedTokens[to].push(tokenId);\n    }\n\n    /**\n     * @dev Private function to add a token to this extension's token tracking data structures.\n     * @param tokenId uint256 ID of the token to be added to the tokens list\n     */\n    function _addTokenToAllTokensEnumeration(uint256 tokenId) private {\n        _allTokensIndex[tokenId] = _allTokens.length;\n        _allTokens.push(tokenId);\n    }\n\n    /**\n     * @dev Private function to remove a token from this extension's ownership-tracking data structures. Note that\n     * while the token is not assigned a new owner, the _ownedTokensIndex mapping is _not_ updated: this allows for\n     * gas optimizations e.g. when performing a transfer operation (avoiding double writes).\n     * This has O(1) time complexity, but alters the order of the _ownedTokens array.\n     * @param from address representing the previous owner of the given token ID\n     * @param tokenId uint256 ID of the token to be removed from the tokens list of the given address\n     */\n    function _removeTokenFromOwnerEnumeration(address from, uint256 tokenId) private {\n        // To prevent a gap in from's tokens array, we store the last token in the index of the token to delete, and\n        // then delete the last slot (swap and pop).\n\n        uint256 lastTokenIndex = _ownedTokens[from].length.sub(1);\n        uint256 tokenIndex = _ownedTokensIndex[tokenId];\n\n        // When the token to delete is the last token, the swap operation is unnecessary\n        if (tokenIndex != lastTokenIndex) {\n            uint256 lastTokenId = _ownedTokens[from][lastTokenIndex];\n\n            _ownedTokens[from][tokenIndex] = lastTokenId; // Move the last token to the slot of the to-delete token\n            _ownedTokensIndex[lastTokenId] = tokenIndex; // Update the moved token's index\n        }\n\n        // This also deletes the contents at the last position of the array\n        //_ownedTokens[from].length--;\n        delete _ownedTokens[from][_ownedTokens[from].length.sub(1)];\n\n        // Note that _ownedTokensIndex[tokenId] hasn't been cleared: it still points to the old slot (now occupied by\n        // lastTokenId, or just over the end of the array if the token was the last one).\n    }\n\n}\n\n// File: dev/library/ERC721/IERC721Metadata.sol\n\npragma solidity ^0.7.4;\n\n\n/**\n * @title ERC-721 Non-Fungible Token Standard, optional metadata extension\n * @dev See https://eips.ethereum.org/EIPS/eip-721\n */\nabstract contract IERC721Metadata is IERC721 {\n    function name() virtual external view returns (string memory);\n    function symbol() virtual external view returns (string memory);\n    function tokenURI(uint256 tokenId) virtual external view returns (string memory);\n}\n\n// File: dev/library/utils/Strings.sol\n\npragma solidity ^0.7.4;\n\nlibrary Strings {\n\n    function uint2str(uint i) internal pure returns (string memory) {\n        if (i == 0) return \"0\";\n        uint j = i;\n        uint len;\n        while (j != 0){\n            len++;\n            j /= 10;\n        }\n        bytes memory bstr = new bytes(len);\n        uint k = len - 1;\n        while (i != 0){\n            bstr[k--] = byte(uint8(48 + i % 10));\n            i /= 10;\n        }\n        return string(bstr);\n    }\n}\n\n// File: dev/library/ERC721/ERC721Metadata.sol\n\npragma solidity ^0.7.4;\n\n\n\n\n\ncontract ERC721Metadata is ERC165, ERC721, IERC721Metadata {\n    // Token name\n    string private _name;\n\n    // Token symbol\n    string private _symbol;\n\n    // Base Token URI\n    string private _baseTokenURI;\n\n    // Optional mapping for token URIs\n    mapping(uint256 => string) private _tokenURIs;\n\n    /*\n     *     bytes4(keccak256('name()')) == 0x06fdde03\n     *     bytes4(keccak256('symbol()')) == 0x95d89b41\n     *     bytes4(keccak256('tokenURI(uint256)')) == 0xc87b56dd\n     *\n     *     => 0x06fdde03 ^ 0x95d89b41 ^ 0xc87b56dd == 0x5b5e139f\n     */\n    bytes4 private constant _INTERFACE_ID_ERC721_METADATA = 0x5b5e139f;\n\n    /**\n     * @dev Constructor function\n     */\n    constructor (string memory tokenName, string memory tokenSymbol) {\n        _name = tokenName;\n        _symbol = tokenSymbol;\n\n        // register the supported interfaces to conform to ERC721 via ERC165\n        _registerInterface(_INTERFACE_ID_ERC721_METADATA);\n    }\n\n    /**\n     * @dev Gets the token name.\n     * @return string representing the token name\n     */\n    function name() override external view returns (string memory) {\n        return _name;\n    }\n\n    /**\n     * @dev Gets the token symbol.\n     * @return string representing the token symbol\n     */\n    function symbol() override external view returns (string memory) {\n        return _symbol;\n    }\n\n    // - `external` to `public` (Allow 'super')\n    // - Concat baseURI with tokenURI\n    function tokenURI(uint256 tokenId) override public view returns (string memory) {\n        return string(abi.encodePacked(_baseTokenURI, _tokenURI(tokenId)));\n    }\n\n    /**\n     * @dev Internal returns an URI for a given token ID.\n     * Throws if the token ID does not exist. May return an empty string.\n     * @param tokenId uint256 ID of the token to query\n     */\n    function _tokenURI(uint256 tokenId) internal view returns (string memory) {\n        require(_exists(tokenId), \"ERC721Metadata: URI query for nonexistent token\");\n        return Strings.uint2str(tokenId);\n    }   \n\n    /**\n     * @dev Internal function to set the base token URI.\n     * @param uri string base URI to assign\n     */\n    function _setBaseTokenURI(string memory uri) internal {\n        _baseTokenURI = uri;\n    }\n\n    function getBaseTokenURI() public view returns(string memory){\n        return _baseTokenURI;\n    }\n\n}\n\n// File: dev/library/ERC721/ERC721Full.sol\n\npragma solidity ^0.7.4;\n\n\n\n\n/**\n * @title Full ERC721 Token\n * @dev This implementation includes all the required and some optional functionality of the ERC721 standard\n * Moreover, it includes approve all functionality using operator terminology.\n *\n * See https://eips.ethereum.org/EIPS/eip-721\n */\ncontract ERC721Full is ERC721, ERC721Enumerable, ERC721Metadata {\n    constructor (string memory name, string memory symbol) ERC721Metadata(name, symbol) {\n        // solhint-disable-previous-line no-empty-blocks\n    }\n\n    function _mint(address to, uint256 tokenId) override(ERC721, ERC721Enumerable) internal {\n        super._mint(to, tokenId);\n    }\n    \n    function _transferFrom(address from, address to, uint256 tokenId) override(ERC721, ERC721Enumerable) internal {\n        super._transferFrom(from, to, tokenId);\n    }\n}\n\n// File: dev/library/ownership/OwnableAndPausable.sol\n\npragma solidity ^0.7.4;\n\n/**\n * @dev Contract module which provides a basic access control mechanism, where\n * there is an account (an owner) that can be granted exclusive access to\n * specific functions.\n *\n * This module is used through inheritance. It will make available the modifier\n * `onlyOwner`, which can be aplied to your functions to restrict their use to\n * the owner.\n */\ncontract OwnableAndPausable {\n    address public _owner;\n    bool public _paused;\n\n    event OwnershipTransferred(address indexed previousOwner, address indexed newOwner);\n    event Paused(address account);\n    event Unpaused(address account);\n\n    constructor () {\n        _owner = msg.sender;\n        _paused = false;\n        emit OwnershipTransferred(address(0), _owner);\n    }\n\n    /**\n     * @dev Returns the address of the current owner.\n     */\n    function owner() public view returns (address) {\n        return _owner;\n    }\n\n    /**\n     * @dev Throws if called by any account other than the owner.\n     */\n    modifier onlyGenuino() {\n        require(isOwner(), \"Ownable: caller is not the owner\");\n        _;\n    }\n\n    modifier whenNotPaused() {\n        require(!_paused, \"Pausable: paused\");\n        _;\n    }\n\n    modifier whenPaused() {\n        require(_paused, \"Pausable: not paused\");\n        _;\n    }\n    /**\n     * @dev Returns true if the caller is the current owner.\n     */\n    function isOwner() public view returns (bool) {\n        return msg.sender == _owner;\n    }\n\n    function _transferOwnership(address newOwner) internal {\n        require(newOwner != address(0), \"Ownable: new owner is the zero address\");\n        emit OwnershipTransferred(_owner, newOwner);\n        _owner = newOwner;\n    }\n\n\n    function paused() public view returns (bool) {\n        return _paused;\n    }\n    \n    function pause() public onlyGenuino whenNotPaused {\n        _paused = true;\n        emit Paused(msg.sender);\n    }\n\n    function unpause() public onlyGenuino whenPaused {\n        _paused = false;\n        emit Unpaused(msg.sender);\n    }\n}\n\n// File: dev/GenuNFT_STAGE.sol\n\n\npragma solidity ^0.7.4;\npragma experimental ABIEncoderV2;\n\n\n\n/// @title GenuNFT\n/// @author Genuino\ncontract GenuNFT_STAGE is ERC721Full, OwnableAndPausable {\n  /**\n   * Data Structures and values\n   */\n\n  struct NftData{\n    uint256 creationDate;\n    string nfcSerialNumber;\n    string rfidSerialNumber;\n    string patchId;\n  }\n\n  struct TrackingStep{\n    uint256 timestamp;\n    string eventCode;\n    string eventDescription;\n    string location;\n    string locationName;\n    string publicData1;\n    string publicData2;\n  }\n\n  uint256 internal _transferFee;\n  uint256 internal _creationFeeETH;\n\n  mapping(uint256 => TrackingStep[]) tokenTracking;\n\n  NftData[] tokenDataStorage;\n\n  //mapping da tokenId a BrandId\n  mapping(uint256 => uint256) tokenCreatedBy;\n\n  //Mapping da brandId a tokenIds[]\n  mapping(uint256 => uint256[]) tokensCreatedByArray;\n\n  mapping (address => bool) _brandWhiteList;\n  mapping (uint256 => address) _brandAddresses;\n  mapping (address => uint256) _brandIds;\n  //_brandId = 0 means invalid brand\n  uint256 totalBrands = 0;\n\n  // mapping tra tokenId e bool\n  mapping (uint256 => bool) _tokenTransferDisabled;\n\n  // mapping tra nfcSerialNumber e tokenId\n  mapping (string => uint256) _nfcSerialsNumber;\n\n  // mapping tra rfidSerialNumber e tokenId\n  mapping (string => uint256) _rfidSerialsNumber;\n\n  // mapping tra patchId e tokenId\n  mapping (string => uint256) _patchIds;\n\n  uint256 tokenIdCounter;\n\n  /**********************/\n\n  /*\n  * Events\n  */\n  event TokenCreated(uint256 indexed tokenId, address creatorAddress, string nfcSerialNumber);\n  event TokenTransfered(uint256 indexed tokenId, address from, address to);\n  event TokenInfoUpdated(uint256 indexed tokenId, address updatingAddress);\n  event BrandCreated(uint256 indexed brandId, address brandAddress);\n  event BrandModified(uint256 indexed brandId, address newBrandAddress);\n  event TokenTransferUpdated(uint256 indexed tokenId, address tokenOwner, bool disabled);\n  event TokenOwnershipTransfered(uint256 indexed tokenId, address fromAddress, address toAddress);\n  event TrackingStepAdded(uint256 indexed tokenId, TrackingStep newStep);\n  event TransferFeesUpdated(uint256 newETHFees);\n  event CreationFeesUpdated(uint256 newETHFees);\n  event FeeHasBeenWithdrawn(uint256 withdrawnBalanceETH, address toAddress);\n\n  /*....*/\n\n  /*********************/\n  constructor() ERC721Full(\"GenuNFT_STAGE\", \"GNFT_S\") {\n    addBrandAddress(msg.sender); //Genuino  un brand\n  }\n\n  /*\n  * Internal functions for substitude modifiers\n  */\n\n  /**\n  * @notice Check if caller is the contract owner \n  */\n  function _isGenuino() internal view {\n    require(msg.sender == _owner);\n  }\n\n  /**\n   * @notice Check if caller is the contract owner or a brand\n   */\n  function _isGenuinoOrBrand() internal view {\n    require(msg.sender == _owner || _brandWhiteList[msg.sender]);\n  }\n\n  /**\n   * @notice Check if caller is the token owner\n   */\n  function _isTokenOwner(uint256 tokenId) internal view {\n    require(msg.sender == ownerOf(tokenId));\n  }\n\n  /**\n   * @notice Check if caller is the owner or a creator branf\n   */\n  function _isGenuinoOrCreatorBrand(uint256 tokenId) internal view {\n    require(_exists(tokenId), \"ERC721: operator query for nonexistent token\");\n    bool isCreator = _brandIds[msg.sender] != 0 && tokenCreatedBy[tokenId] == _brandIds[msg.sender];\n    require(msg.sender == _owner || isCreator);\n  }\n\n  function _isNotPaused() internal view {\n    require(_paused == false);\n  }\n\n  /*\n   * Fee functions\n   */\n\n  /**\n   * @dev update transfer fee\n   * @param newFee the new fee to set\n   */\n  function updateTransferFee(uint256 newFee) public {\n    _isGenuino();\n    _transferFee = newFee;\n    emit TransferFeesUpdated(_transferFee);\n  }\n  \n  /**\n   * @dev update creation fee\n   * @param newFeeETH the new fee to set\n   */\n  function updateCreationFee(uint256 newFeeETH) public {\n    _isGenuino();\n    _creationFeeETH = newFeeETH;\n    emit CreationFeesUpdated(_creationFeeETH);\n  }\n    \n  /**\n   * @dev withdraw fees\n   */\n  function withdrawFees() public {\n    _isGenuino();\n    uint256 balanceETH = address(this).balance;\n    msg.sender.transfer(balanceETH);\n    emit FeeHasBeenWithdrawn(balanceETH, msg.sender);\n  }\n\n  /*\n   * NFT Token functions\n   */\n\n  /**\n   * @dev Transfers ownership of the contract to a new account (`newOwner`).\n   * Can only be called by the current owner.\n   */\n  function transferOwnership(address newOwner) public {\n    _isGenuino();\n    _transferOwnership(newOwner);\n    _updateBrandAddress(1, newOwner);\n  }\n\n  /**\n   * @dev Mint new token\n   * @param tokenData the nft data\n   */ \n  function createToken(NftData memory tokenData) public payable {\n    _isNotPaused();\n    _isGenuinoOrBrand();\n    require(msg.value == _creationFeeETH, \"ETH sent are not enough to create the token.\");\n    tokenDataStorage.push(tokenData);\n    uint256 newTokenId = tokenIdCounter;\n    tokenIdCounter++;\n    _mint(msg.sender, newTokenId);\n    uint256 brandId = _brandIds[msg.sender];\n    tokenCreatedBy[newTokenId] = brandId;\n    tokensCreatedByArray[brandId].push(newTokenId);\n    _tokenTransferDisabled[newTokenId] = false;\n    _nfcSerialsNumber[tokenData.nfcSerialNumber] = newTokenId;\n    _rfidSerialsNumber[tokenData.rfidSerialNumber] = newTokenId;\n    _patchIds[tokenData.patchId] = newTokenId;\n    emit TokenCreated(newTokenId, msg.sender, tokenData.nfcSerialNumber);\n  }\n\n  /**\n   * @dev Mint new tokens in batch\n   * @param tokensData the nft datas\n   */ \n  function createTokensInBatch(NftData[] memory tokensData) public payable {\n    _isNotPaused();\n    _isGenuinoOrBrand();\n    for (uint i = 0; i < tokensData.length; i++) {\n      _createToken(tokensData[i]);\n    }\n  }\n\n  /** \n   * @notice Internal function to create token\n   */\n  function _createToken(NftData memory tokenData) internal {\n    createToken(tokenData);\n  }\n\n  /**\n   * @dev Mint new token with an initial step\n   * @param tokenData the nft data\n   * @param newStep the new tracking step \n   */ \n  function createTokenWithStep(NftData memory tokenData, TrackingStep memory newStep) public payable {\n    _isNotPaused();\n    _isGenuinoOrBrand();\n    _createToken(tokenData);\n    _addTrackingStep(tokenIdCounter - 1, newStep);\n  }\n\n  // https://github.com/OpenZeppelin/openzeppelin-contracts/issues/1015\n  /**\n   * @dev transfer token \n   * @param from address\n   * @param to address\n   * @param tokenId the token id to transfer \n   */\n  function transferFrom(address from, address to, uint256 tokenId) override public payable {\n    _isNotPaused();\n    _isTokenOwner(tokenId);\n    require(!_tokenTransferDisabled[tokenId], \"The token ownership transfer has been disabled by the token owner.\");\n    require(_isApprovedOrOwner(msg.sender, tokenId), \"ERC721: transfer caller is not owner nor approved\");\n    require(msg.value == _transferFee, \"ETH sent are not enough to transfer the token.\");\n    addTransferStep(tokenId);\n    //IERC721 token = IERC721()\n    _transferFrom(msg.sender, to, tokenId);\n    emit TokenOwnershipTransfered(tokenId, from, to);\n  }\n\n  \n  /**\n   * @dev funzione che viene chiamata per aggiungere/aggiornare informazioni del token\n   * @param tokenId the id of the token\n   * @param tokenData Nft Data struct\n   */\n  function updateItemInfo(uint256 tokenId, NftData memory tokenData) public {\n    _isNotPaused();\n    _isGenuinoOrCreatorBrand(tokenId);\n    tokenDataStorage[tokenId] = tokenData;\n    emit TokenInfoUpdated(tokenId, msg.sender);\n  }\n\n  /**\n   * @dev utente disabilita la possibilit di trasferire un token \n   * @param tokenId the token id to disable \n   */\n  function disableTokenTransfer(uint256 tokenId) public {\n    _isNotPaused();\n    _isTokenOwner(tokenId);\n    _tokenTransferDisabled[tokenId] = true;\n    emit TokenTransferUpdated(tokenId, msg.sender, true);\n  }\n\n  /**\n   * @dev utente riabilita la possibilit di trasferire un token \n   * @param tokenId the token id to resume \n   */\n  function resumeTokenTransfer(uint256 tokenId) public {\n    _isNotPaused();\n    _isTokenOwner(tokenId);\n    _tokenTransferDisabled[tokenId] = false;\n    emit TokenTransferUpdated(tokenId, msg.sender, false);\n  }\n\n  /**\n   * @dev check if the tokenId is trasferible\n   * @param tokenId the token id to check\n   */\n  function isTrasferable(uint256 tokenId) public view returns(bool) {\n    return !_tokenTransferDisabled[tokenId];\n  }\n\n  /**\n   * @dev set base token URI\n   * @param uri the new uri to set\n   */\n  function setBaseTokenURI(string memory uri) public {\n    _isGenuino();\n    _setBaseTokenURI(uri);\n  }\n\n  /*\n   * Brand functions\n   */\n\n  /**\n   * @param newBrandAddress address to update brand\n   * @return total brands created\n   */ \n  function addBrandAddress(address newBrandAddress) public returns(uint256) {\n    _isGenuino();\n    require(!_brandWhiteList[newBrandAddress], \"A brand with this address already exists.\");\n    totalBrands += 1;\n    _brandAddresses[totalBrands] = newBrandAddress;\n    _brandWhiteList[newBrandAddress] = true;\n    _brandIds[newBrandAddress] = totalBrands;\n    emit BrandCreated(totalBrands, newBrandAddress);\n    return totalBrands;\n  }\n\n  /**\n   * @param brandId the id of the brand\n   */ \n  function removeBrandAddress(uint256 brandId) public {\n    _isGenuino();\n    require(brandId != 1, \"Genuino brand cannot be removed.\");\n    updateBrandAddress(brandId, address(0));\n  }\n\n  /**\n   * @dev Internal function for updating brand address\n   * @param brandId the id of the brand\n   * @param newBrandAddress address to update brand\n   */ \n  function updateBrandAddress(uint256 brandId, address newBrandAddress) public {\n    _isGenuino();\n    _updateBrandAddress(brandId, newBrandAddress);\n  }\n\n  /**\n   * @param brandId the id of the brand\n   * @param newBrandAddress address to update brand\n   */ \n  function _updateBrandAddress(uint256 brandId, address newBrandAddress) internal {\n    require(!_brandWhiteList[newBrandAddress], \"A brand with this address already exists.\");\n    address oldAddress = _brandAddresses[brandId];\n    _brandWhiteList[oldAddress] = false;\n    _brandAddresses[brandId] = newBrandAddress;\n    _brandIds[oldAddress] = 0;\n    _brandIds[newBrandAddress] = brandId;\n    if(newBrandAddress != address(0)) { //removeBrandAddress Case\n      _brandWhiteList[newBrandAddress] = true;\n    }\n    emit BrandModified(brandId, newBrandAddress);\n  }\n\n  /*\n   * Tracking Step functions\n   */\n\n  /**\n   * @dev Aggiunge uno step durante il trasferimento del token\n   * @param tokenId the token id\n   */\n  function addTransferStep(uint256 tokenId) internal {\n    _isTokenOwner(tokenId);\n    string memory location = ''; \n    string memory locationName = '';\n    if (tokenTracking[tokenId].length > 0) {\n      TrackingStep memory lastStep = tokenTracking[tokenId][tokenTracking[tokenId].length - 1];\n      location = lastStep.location;\n      locationName = lastStep.locationName;\n    }\n    TrackingStep memory newStep = TrackingStep(\n      getTimestamp(),\n      'UTO',\n      '{en-US:\"Token Ownership Updated\", it-IT:\"Cessione Proprieta\"}',\n      location,\n      locationName,\n      '',\n      ''\n    );\n    tokenTracking[tokenId].push(newStep);\n    emit TrackingStepAdded(tokenId, newStep);\n  }\n\n  /**\n   * @dev aggiorna la tappa del token\n   * @param tokenId the token id\n   * @param newStep the tracking step to added \n   */\n  function addTrackingStep(uint256 tokenId, TrackingStep memory newStep) public {\n    _isNotPaused();\n    _isGenuinoOrCreatorBrand(tokenId);\n    tokenTracking[tokenId].push(newStep);\n    emit TrackingStepAdded(tokenId, newStep);\n  }\n\n  /** \n   * @notice Internal function to add a new tracking step\n   */\n  function _addTrackingStep(uint256 tokenId, TrackingStep memory newStep) internal {\n      addTrackingStep(tokenId, newStep);\n  }\n\n  /**\n   * @dev aggiorna le tappe del token\n   * @param tokenId the token id\n   * @param newSteps the tracking steps to added \n   */\n  function addTrackingStepsInBatch(uint tokenId, TrackingStep[] memory newSteps) public {\n    _isNotPaused();\n    _isGenuinoOrCreatorBrand(tokenId);\n    for(uint i = 0; i < newSteps.length; i++) {\n      _addTrackingStep(tokenId, newSteps[i]);\n    }\n  }\n\n  /**\n   * @dev Aggiunge un tracking step con la nuova posizione\n   * @param tokenId the token id\n   * @param location the new location\n   * @param locationName the new location name\n   * @param publicData the public data \n   */\n  function updateItemLocation(uint256 tokenId, string memory location, string memory locationName, string memory publicData) public {\n    _isNotPaused();\n    _isTokenOwner(tokenId);\n    TrackingStep memory newStep = TrackingStep(\n        getTimestamp(),\n        'UIL',\n        '{ en-US:\"Location Updated\", it-IT:\"Posizione Aggiornata\"}',\n        location,\n        locationName,\n        '',\n        publicData\n    );\n    tokenTracking[tokenId].push(newStep);\n    emit TrackingStepAdded(tokenId, newStep);\n  }\n\n  /*\n   * Getters\n   */\n\n  /**\n   * @dev get creation fee\n   * @return creation fees\n   */\n  function getCreationFee() public view returns(uint256) {\n    return _creationFeeETH;\n  }\n    \n  /**\n   * @dev get transfer fee\n   * @return transfer fees\n   */\n  function getTransferFee() public view returns(uint256) {\n    return _transferFee;\n  }\n  \n  /**\n   * @dev retrieves all tokens created by brandId \n   * @param brandId brand id\n   */ \n  function getTokensCreatedBy(uint256 brandId) public view returns(uint256[] memory){\n    return tokensCreatedByArray[brandId];\n  }\n\n  /**\n   * @return all tokens data\n   */\n  function getAllTokenData() public view returns(NftData[] memory){\n    return tokenDataStorage;\n  }\n\n  /**\n   * @dev get token by tokenId\n   * @param tokenId tokenId to search\n   * @return token NftData\n   */\n  function getTokenById(uint256 tokenId) public view returns(NftData memory){\n    require(_exists(tokenId), \"ERC721: operator query for nonexistent token\");\n    return tokenDataStorage[tokenId];\n  }\n\n  /**\n   * @dev get tracking steps by tokenId\n   * @param tokenId tokenId to search\n   * @return token TrackingStep[]\n   */\n  function getTokenTrackingStepById(uint256 tokenId) public view returns(TrackingStep[] memory){\n    require(_exists(tokenId), \"ERC721: operator query for nonexistent token\");\n    return tokenTracking[tokenId];\n  }\n\n  /**\n   * @return numbers of brands created\n   */ \n  function getBrandsNumber() public view returns(uint256){\n    return totalBrands;\n  }\n\n  /**\n   * @param brandId brand id\n   * @return brandId address\n   */\n  function getBrandAddress(uint256 brandId) public view returns(address){\n    return _brandAddresses[brandId];\n  }\n\n  /**\n   * @return all brands addresses\n   */\n  function getAllBrands() public view returns(address[] memory) {\n    address[] memory allBrands = new address[](totalBrands+1);\n    for(uint i = 0 ; i <= totalBrands ; i++){\n      allBrands[i] = _brandAddresses[i];\n    }\n    return allBrands;\n  }\n\n  /**\n   * @dev ritorna il token associato ad un nfc seriale\n   * @param nfcSerialNumber the nfc serial number of the token\n   * @return NftData\n   * @return token id \n   */\n  function getTokenByNfc(string memory nfcSerialNumber) public view returns(NftData memory, uint256) {\n    uint256 tokenId = _nfcSerialsNumber[nfcSerialNumber];\n    return (tokenDataStorage[tokenId], tokenId);\n  }\n\n  /**\n   * @dev ritorna il token associato ad un rfid seriale\n   * @param rfidSerialNumber the rfid serial number of the token\n   * @return NftData\n   * @return token id \n   */\n  function getTokenByRfid(string memory rfidSerialNumber) public view returns(NftData memory, uint256) {\n    uint256 tokenId = _rfidSerialsNumber[rfidSerialNumber];\n    return (tokenDataStorage[tokenId], tokenId);\n  }\n\n  /**\n   * @dev ritorna il token associato ad una patch id\n   * @param patchId the patch id of the token\n   * @return NftData\n   * @return token id \n   */\n  function getTokenByPatchId(string memory patchId) public view returns(NftData memory, uint256) {\n    uint256 tokenId = _patchIds[patchId];\n    return (tokenDataStorage[tokenId], tokenId);\n  }\n\n  /**\n   * @notice retrieve timestamp of the current block \n   */\n  function getTimestamp() public view returns (uint256) {\n    return block.timestamp;\n  }\n}\n",
  "sourcePath": "/home/dan/Documents/Genuino/genuino.nft/contracts/GenuNFT_STAGE.flattened.sol",
  "compiler": {
    "name": "solc",
    "version": "0.7.4+commit.3f05b770.Emscripten.clang"
  },
  "schemaVersion": "3.3.2",
  "updatedAt": "2021-02-07T10:55:08.057Z",
  "networkType": "ethereum",
  "devdoc": {
    "author": "Genuino",
    "kind": "dev",
    "methods": {
      "addBrandAddress(address)": {
        "params": {
          "newBrandAddress": "address to update brand"
        },
        "returns": {
          "_0": "total brands created"
        }
      },
      "addTrackingStep(uint256,(uint256,string,string,string,string,string,string))": {
        "details": "aggiorna la tappa del token",
        "params": {
          "newStep": "the tracking step to added ",
          "tokenId": "the token id"
        }
      },
      "addTrackingStepsInBatch(uint256,(uint256,string,string,string,string,string,string)[])": {
        "details": "aggiorna le tappe del token",
        "params": {
          "newSteps": "the tracking steps to added ",
          "tokenId": "the token id"
        }
      },
      "approve(address,uint256)": {
        "details": "Approves another address to transfer the given token ID The zero address indicates there is no approved address. There can only be one approved address per token at a given time. Can only be called by the token owner or an approved operator.",
        "params": {
          "to": "address to be approved for the given token ID",
          "tokenId": "uint256 ID of the token to be approved"
        }
      },
      "balanceOf(address)": {
        "details": "Gets the balance of the specified address.",
        "params": {
          "owner": "address to query the balance of"
        },
        "returns": {
          "_0": "uint256 representing the amount owned by the passed address"
        }
      },
      "createToken((uint256,string,string,string))": {
        "details": "Mint new token",
        "params": {
          "tokenData": "the nft data"
        }
      },
      "createTokenWithStep((uint256,string,string,string),(uint256,string,string,string,string,string,string))": {
        "details": "Mint new token with an initial step",
        "params": {
          "newStep": "the new tracking step ",
          "tokenData": "the nft data"
        }
      },
      "createTokensInBatch((uint256,string,string,string)[])": {
        "details": "Mint new tokens in batch",
        "params": {
          "tokensData": "the nft datas"
        }
      },
      "disableTokenTransfer(uint256)": {
        "details": "utente disabilita la possibilit di trasferire un token ",
        "params": {
          "tokenId": "the token id to disable "
        }
      },
      "getAllBrands()": {
        "returns": {
          "_0": "all brands addresses"
        }
      },
      "getAllTokenData()": {
        "returns": {
          "_0": "all tokens data"
        }
      },
      "getApproved(uint256)": {
        "details": "Gets the approved address for a token ID, or zero if no address set Reverts if the token ID does not exist.",
        "params": {
          "tokenId": "uint256 ID of the token to query the approval of"
        },
        "returns": {
          "_0": "address currently approved for the given token ID"
        }
      },
      "getBrandAddress(uint256)": {
        "params": {
          "brandId": "brand id"
        },
        "returns": {
          "_0": "brandId address"
        }
      },
      "getBrandsNumber()": {
        "returns": {
          "_0": "numbers of brands created"
        }
      },
      "getCreationFee()": {
        "details": "get creation fee",
        "returns": {
          "_0": "creation fees"
        }
      },
      "getTokenById(uint256)": {
        "details": "get token by tokenId",
        "params": {
          "tokenId": "tokenId to search"
        },
        "returns": {
          "_0": "token NftData"
        }
      },
      "getTokenByNfc(string)": {
        "details": "ritorna il token associato ad un nfc seriale",
        "params": {
          "nfcSerialNumber": "the nfc serial number of the token"
        },
        "returns": {
          "_0": "NftData",
          "_1": "token id "
        }
      },
      "getTokenByPatchId(string)": {
        "details": "ritorna il token associato ad una patch id",
        "params": {
          "patchId": "the patch id of the token"
        },
        "returns": {
          "_0": "NftData",
          "_1": "token id "
        }
      },
      "getTokenByRfid(string)": {
        "details": "ritorna il token associato ad un rfid seriale",
        "params": {
          "rfidSerialNumber": "the rfid serial number of the token"
        },
        "returns": {
          "_0": "NftData",
          "_1": "token id "
        }
      },
      "getTokenTrackingStepById(uint256)": {
        "details": "get tracking steps by tokenId",
        "params": {
          "tokenId": "tokenId to search"
        },
        "returns": {
          "_0": "token TrackingStep[]"
        }
      },
      "getTokensCreatedBy(uint256)": {
        "details": "retrieves all tokens created by brandId ",
        "params": {
          "brandId": "brand id"
        }
      },
      "getTransferFee()": {
        "details": "get transfer fee",
        "returns": {
          "_0": "transfer fees"
        }
      },
      "isApprovedForAll(address,address)": {
        "details": "Tells whether an operator is approved by a given owner.",
        "params": {
          "operator": "operator address which you want to query the approval of",
          "owner": "owner address which you want to query the approval of"
        },
        "returns": {
          "_0": "bool whether the given operator is approved by the given owner"
        }
      },
      "isOwner()": {
        "details": "Returns true if the caller is the current owner."
      },
      "isTrasferable(uint256)": {
        "details": "check if the tokenId is trasferible",
        "params": {
          "tokenId": "the token id to check"
        }
      },
      "name()": {
        "details": "Gets the token name.",
        "returns": {
          "_0": "string representing the token name"
        }
      },
      "owner()": {
        "details": "Returns the address of the current owner."
      },
      "ownerOf(uint256)": {
        "details": "Gets the owner of the specified token ID.",
        "params": {
          "tokenId": "uint256 ID of the token to query the owner of"
        },
        "returns": {
          "_0": "address currently marked as the owner of the given token ID"
        }
      },
      "removeBrandAddress(uint256)": {
        "params": {
          "brandId": "the id of the brand"
        }
      },
      "resumeTokenTransfer(uint256)": {
        "details": "utente riabilita la possibilit di trasferire un token ",
        "params": {
          "tokenId": "the token id to resume "
        }
      },
      "safeTransferFrom(address,address,uint256)": {
        "details": "Safely transfers the ownership of a given token ID to another address If the target address is a contract, it must implement `onERC721Received`, which is called upon a safe transfer, and return the magic value `bytes4(keccak256(\"onERC721Received(address,address,uint256,bytes)\"))`; otherwise, the transfer is reverted. Requires the msg.sender to be the owner, approved, or operator",
        "params": {
          "from": "current owner of the token",
          "to": "address to receive the ownership of the given token ID",
          "tokenId": "uint256 ID of the token to be transferred"
        }
      },
      "safeTransferFrom(address,address,uint256,bytes)": {
        "details": "Safely transfers the ownership of a given token ID to another address If the target address is a contract, it must implement `onERC721Received`, which is called upon a safe transfer, and return the magic value `bytes4(keccak256(\"onERC721Received(address,address,uint256,bytes)\"))`; otherwise, the transfer is reverted. Requires the msg.sender to be the owner, approved, or operator",
        "params": {
          "_data": "bytes data to send along with a safe transfer check",
          "from": "current owner of the token",
          "to": "address to receive the ownership of the given token ID",
          "tokenId": "uint256 ID of the token to be transferred"
        }
      },
      "setApprovalForAll(address,bool)": {
        "details": "Sets or unsets the approval of a given operator An operator is allowed to transfer all tokens of the sender on their behalf.",
        "params": {
          "approved": "representing the status of the approval to be set",
          "to": "operator address to set the approval"
        }
      },
      "setBaseTokenURI(string)": {
        "details": "set base token URI",
        "params": {
          "uri": "the new uri to set"
        }
      },
      "supportsInterface(bytes4)": {
        "details": "See `IERC165.supportsInterface`. Time complexity O(1), guaranteed to always use less than 30 000 gas."
      },
      "symbol()": {
        "details": "Gets the token symbol.",
        "returns": {
          "_0": "string representing the token symbol"
        }
      },
      "tokenByIndex(uint256)": {
        "details": "Gets the token ID at a given index of all the tokens in this contract Reverts if the index is greater or equal to the total number of tokens.",
        "params": {
          "index": "uint256 representing the index to be accessed of the tokens list"
        },
        "returns": {
          "_0": "uint256 token ID at the given index of the tokens list"
        }
      },
      "tokenOfOwnerByIndex(address,uint256)": {
        "details": "Gets the token ID at a given index of the tokens list of the requested owner.",
        "params": {
          "index": "uint256 representing the index to be accessed of the requested tokens list",
          "owner": "address owning the tokens list to be accessed"
        },
        "returns": {
          "_0": "uint256 token ID at the given index of the tokens list owned by the requested address"
        }
      },
      "totalSupply()": {
        "details": "Gets the total amount of tokens stored by the contract.",
        "returns": {
          "_0": "uint256 representing the total amount of tokens"
        }
      },
      "transferFrom(address,address,uint256)": {
        "details": "transfer token ",
        "params": {
          "from": "address",
          "to": "address",
          "tokenId": "the token id to transfer "
        }
      },
      "transferOwnership(address)": {
        "details": "Transfers ownership of the contract to a new account (`newOwner`). Can only be called by the current owner."
      },
      "updateBrandAddress(uint256,address)": {
        "details": "Internal function for updating brand address",
        "params": {
          "brandId": "the id of the brand",
          "newBrandAddress": "address to update brand"
        }
      },
      "updateCreationFee(uint256)": {
        "details": "update creation fee",
        "params": {
          "newFeeETH": "the new fee to set"
        }
      },
      "updateItemInfo(uint256,(uint256,string,string,string))": {
        "details": "funzione che viene chiamata per aggiungere/aggiornare informazioni del token",
        "params": {
          "tokenData": "Nft Data struct",
          "tokenId": "the id of the token"
        }
      },
      "updateItemLocation(uint256,string,string,string)": {
        "details": "Aggiunge un tracking step con la nuova posizione",
        "params": {
          "location": "the new location",
          "locationName": "the new location name",
          "publicData": "the public data ",
          "tokenId": "the token id"
        }
      },
      "updateTransferFee(uint256)": {
        "details": "update transfer fee",
        "params": {
          "newFee": "the new fee to set"
        }
      },
      "withdrawFees()": {
        "details": "withdraw fees"
      }
    },
    "title": "GenuNFT",
    "version": 1
  },
  "userdoc": {
    "kind": "user",
    "methods": {
      "getTimestamp()": {
        "notice": "retrieve timestamp of the current block "
      }
    },
    "version": 1
  }
}